:020000040800F2
:10000000880800209101000859120008E10D00083D
:1000100015100008850900082926000800000000C6
:10002000000000000000000000000000A51900080A
:10003000F50B000800000000A5160008B91A00081A
:10004000AB010008AB010008AB010008AB010008E0
:10005000AB010008AB010008AB010008AB010008D0
:10006000AB010008AB010008AB010008AB010008C0
:10007000AB010008AB010008AB010008AB010008B0
:10008000AB010008AB010008AB010008AB010008A0
:10009000AB010008AB010008AB010008AB01000890
:1000A000AB010008AB010008AB010008AB01000880
:1000B0001D1B0008811B0008AB010008AB010008F4
:1000C000AB010008AB010008AB010008AB01000860
:1000D000AB010008B1220008AB0100084123000871
:1000E000AB010008AB010008AB01000800F002F80A
:1000F00000F03FF80AA090E8000C82448344AAF183
:100100000107DA4501D100F034F8AFF2090EBAE880
:100110000F0013F0010F18BFFB1A43F0010318473B
:100120005041000070410000103A24BF78C878C1E7
:10013000FAD8520724BF30C830C144BF04680C60ED
:10014000704700000023002400250026103A28BF35
:1001500078C1FBD8520728BF30C148BF0B60704739
:10016000732900F03981002070471FB51FBD10B5FD
:1001700010BD00F0BDF91146FFF7F7FF02F000FDDA
:1001800000F0DBF903B4FFF7F2FF03BC02F0A6FABC
:100190000948804709480047FEE7FEE7FEE7FEE71B
:1001A000FEE7FEE7FEE7FEE7FEE7FEE70448054957
:1001B000054A064B70470000BD1A0008ED00000814
:1001C000880200208808002088040020880400207D
:1001D000704700000FB4044910B503AA029800F05C
:1001E000FFF810BC5DF814FB580000202DE9F04129
:1001F0000E460446002020622046E168884730B35E
:10020000252805D0D4E901219047206A401CF2E757
:10021000E168204600278847050018D0A5F1410075
:10022000192802D820354FF4006732462946204667
:100230002760FFF795FF40B1012804D0F61D26F096
:1002400007060836D8E7361DD6E72846DAE7206ADB
:10025000BDE8F08170B50C460546012A05D0287826
:10026000800600D5EA69002302E0012305E05B1C5B
:10027000934202D2E05C0028F9D1A869E618C01ABE
:10028000A861286A184428622846AFF3008004E079
:10029000D5E9012114F8010B9047B442F8D3284660
:1002A000AFF3008070BD401ECAB210F8011F8A4231
:1002B00002D00029F9D10020704730B505460B4621
:1002C0002A4613F8014B12F8010B08B1A042F8D0EE
:1002D0001CB1002802D06D1CF1E7284630BD032A6E
:1002E00040F2308010F0030C00F0158011F8013B53
:1002F000BCF1020F624498BF11F801CB00F8013B3A
:1003000038BF11F8013BA2F1040298BF00F801CBFD
:1003100038BF00F8013B11F0030300F07380083A86
:10032000C0F0088051F8043B083A51F804CBA0E82B
:100330000810F5E7121D5CBF51F8043B40F8043B80
:10034000AFF30080D20724BF11F8013B11F801CBB5
:1003500048BF11F8012B24BF00F8013B00F801CB86
:1003600048BF00F8012B70474FF000020429C0F08D
:10037000128010F0030C00F07980CCF1040CBCF179
:10038000020F18BF00F8012BA8BF20F8022BA1EB29
:100390000C0100F06BB85FEAC17C24BF00F8012BB0
:1003A00000F8012B48BF00F8012B704770477047D9
:1003B0007047704710B5436913B1AFF3008001E097
:1003C000FFF748FF012010BD127800F124010A70E8
:1003D00000224A700122EDE711684FF0FF32E9E791
:1003E000074B70B50D467B4400F06BF80446284679
:1003F00000F07AF810B14FF0FF3070BD204670BDAC
:100400004325000010B5203AC0F00B80B1E8185029
:10041000203AA0E81850B1E81850A0E81850BFF4EE
:10042000F5AF5FEA027C24BFB1E81850A0E818508D
:1004300044BF18C918C0BDE810405FEA827C24BFE1
:1004400051F8043B40F8043B08BF7047D20728BF6F
:1004500031F8023B48BF11F8012B28BF20F8023BBE
:1004600048BF00F8012B70474FF0000200B513465B
:1004700094469646203922BFA0E80C50A0E80C50C4
:10048000B1F12001BFF4F7AF090728BFA0E80C5075
:1004900048BF0CC05DF804EB890028BF40F8042B6E
:1004A00008BF704748BF20F8022B11F0804F18BFDB
:1004B00000F8012B7047000001694A1C02610878AE
:1004C000704700B58FB0CDE9013100210591054994
:1004D0007944CDE9031011466846FFF787FE0FB057
:1004E00000BD0000E5FFFFFF007B00F080007047CB
:1004F000754600F02BF8AE4605006946534620F0DD
:100500000700854618B020B5FFF750FEBDE8204033
:100510004FF000064FF000074FF000084FF0000BBF
:1005200021F00701AC46ACE8C009ACE8C009ACE872
:10053000C009ACE8C0098D46704710B50446AFF35A
:1005400000802046BDE81040FFF71CBE0048704701
:100550002802002000B587B001214FF4017001F09E
:10056000DFF84E20ADF8180000208DF81B0006A91A
:10057000284800F040FB4FF4004001F095F8264871
:1005800000F0DCF80020019001208DF80800002028
:100590008DF809004FF4602003900020049004209F
:1005A0008DF8140001A91C4800F00AF90723012264
:1005B0001146194800F02CF907230222114616486B
:1005C00000F026F9072303221146134800F020F912
:1005D000072304220621104800F01AF901210E48D1
:1005E00000F0A1F801210C4800F092F80A4800F050
:1005F0006BF900BF084800F0D9F80028FAD1064886
:1006000000F072F900BF044800F0C6F80028FAD1E3
:1006100007B000BD000801400024014010B50121D1
:10062000304800F056F930483049097830F8310048
:100630002F49096808442E4908602B482B4909783E
:1006400000EBC10040882B4909680844294908602B
:1006500025482649097800EBC100808826490968A9
:1006600008442549086020482049097800EBC1006A
:10067000C088224909680844204908601B4800785E
:10068000401C1A490870084600780A2829DB002017
:100690000870174800680A21B0FBF1F0184908807B
:1006A000002013490860144800680A21B0FBF1F0EB
:1006B000144908800020104908600E4800680A218B
:1006C000B0FBF1F01049088000200A4908600B488F
:1006D00000680A21B0FBF1F00C49088000200749AE
:1006E000086010BD00240140BE000020380000203A
:1006F0003C00002040000020440000204800002072
:100700004C000020500000204E000020520000202D
:1007100021B1826842F00102826003E0826822F027
:1007200001028260704721B1826842F48072826067
:1007300003E0826822F480728260704710B504463C
:100740001248844208D10121401500F0F9FF002130
:10075000601500F0F5FF17E00D48844208D1012133
:10076000001500F0EDFF0021201500F0E9FF0BE07F
:100770000848844208D10121C80300F0E1FF0021AC
:100780004FF4004000F0DCFF10BD000000240140E9
:1007900000280140003C0140014600208A6802F028
:1007A00004020AB1012000E0002070470146002049
:1007B0008A6802F008020AB1012000E000207047B8
:1007C00030B502460020002350680F4C20400D79C0
:1007D0000C6844EA05242043506090680B4C20408C
:1007E000D1E902542C434D7944EA450420439060FA
:1007F000D06A20F470000C7C641EE4B2234340EA0B
:100800000350D06230BD0000FFFEF0FFFDF7F1FFA6
:10081000F0B504460D4600200021092D11DDE068E9
:10082000A5F10A0606EB4607072606FA07F18843F4
:10083000A5F10A0606EB460603FA06F10843E06056
:100840000CE0206905EB4507072606FA07F1884307
:1008500005EB450603FA06F108432061072A0FDA83
:10086000606B561E06EB86071F2606FA07F18843C3
:10087000561E06EB860605FA06F10843606322E081
:100880000D2A0FDA206BD61F06EB86071F2606FA05
:1008900007F18843D61F06EB860605FA06F10843E2
:1008A000206310E0E06AA2F10D0606EB86071F2622
:1008B00006FA07F18843A2F10D0606EB860605FA53
:1008C00006F10843E062F0BD816841F008018160F3
:1008D000704721B1826842F4A002826003E082681E
:1008E00022F4A00282607047816841F004018160B7
:1008F0007047000008B50121082000F011FF4FF4F7
:100900000040ADF8000010208DF8030001208DF8A4
:1009100002006946044800F06EF94FF400410248B5
:1009200000F045FA08BD0000000C014010B50A486F
:10093000006850B108480068401E074908604FF43D
:100940000041064800F035FA04E04FF40041034846
:1009500000F02DFA10BD000054000020000C0140F2
:1009600001490860704700005400002001490860F8
:100970007047000088860D420149086070470000FA
:1009800000860D4200BFFEE700B5034633B90020E4
:1009900000F042FB002000F0CFFB05E0012000F05A
:1009A0003BFB012000F0C8FB00BD10B5044620460B
:1009B00000F076FB204600F029FC10BD10B504467F
:1009C000204600F093FB204600F0FAFB10BD10B566
:1009D0000446204600F064FB204600F0F1FB10BD09
:1009E00010B50446204600F081FB204600F00EFCC6
:1009F00010BD704721B1026842F00102026004E0BC
:100A000002684FF6FE731A400260704701684FF6A5
:100A1000FE72114001600021016041608160C1608F
:100A20004B49884208D14A490839496841F00F01C9
:100A3000474A083A51608AE045491431884208D152
:100A400043490839496841F0F001414A083A516088
:100A50007DE03F492831884208D13D49083949683D
:100A600041F470613A4A083A516070E038493C31CB
:100A7000884208D136490839496841F47041344AFE
:100A8000083A516063E032495031884208D1304918
:100A90000839496841F470212D4A083A516056E0FE
:100AA0002B496431884208D129490839496841F401
:100AB0007001274A083A516049E025497831884257
:100AC00008D123490839496841F07061204A083A41
:100AD00051603CE01F49884206D1011F096841F07E
:100AE0000F01021F116032E01A491431884208D107
:100AF0001849091F096841F0F001164A121F1160D8
:100B000025E014492831884208D11249091F096893
:100B100041F470610F4A121F116018E00D493C3119
:100B2000884208D10B49091F096841F47041094AFC
:100B3000121F11600BE007495031884207D1054967
:100B4000091F096841F47021024A121F11607047A1
:100B5000080002400804024010B50022026847F66F
:100B6000F0739A430C6A8B6823430C6923434C69E6
:100B700023438C692343CC6923434C6A23438C6A07
:100B800023431A430260CB6843600B6883604B6861
:100B9000C36010BD00B58BB00121084600F090FD88
:100BA0001148FFF733FF11480090114801900020D1
:100BB000029028200390002004908020059040009F
:100BC00006908000079020200890000209900020E5
:100BD0000A9069460448FFF7BFFF01210248FFF76A
:100BE00009FF0BB000BD0000080002404C2401408A
:100BF000BE00002070472DE9F04102460025002686
:100C0000002000230024002791F803C00CF00F05FA
:100C100091F803C00CF0100CBCF1000F03D091F858
:100C200002C04CEA050591F800C0BCF1000F31D0BC
:100C3000146800202BE04FF0010C0CFA00F3B1F81F
:100C400000C00CEA03069E4220D183004FF00F0C37
:100C50000CFA03F7BC4305FA03FC4CEA040491F8D0
:100C600003C0BCF1280F06D14FF0010C0CFA00FCB8
:100C7000C2F814C00AE091F803C0BCF1480F05D1D6
:100C80004FF0010C0CFA00FCC2F810C0401C082800
:100C9000D1D31460B1F800C0BCF1FF0F34DD54684B
:100CA00000202EE000F1080C4FF0010808FA0CF3C8
:100CB000B1F800C00CEA03069E4221D183004FF038
:100CC0000F0C0CFA03F7BC4305FA03FC4CEA0404CE
:100CD00091F803C0BCF1280F05D100F1080C08FA07
:100CE0000CF8C2F8148091F803C0BCF1480F07D18A
:100CF00000F1080C4FF0010808FA0CF8C2F8108057
:100D0000401C0828CED35460BDE8F081F0B50A46F7
:100D1000002300240021002500F00046B6F1004F1A
:100D200002D11D4EF16901E01B4E7168C0F303450D
:100D300083B200F44016B6F5401F08D121F070616F
:100D4000154E766826F07066134F7E6012E000F450
:100D50008016B6F5801F06D1032606FA05F4A143D6
:100D600041F0706106E0460D360103FA06F6B14324
:100D700041F0706122B1460D360103FA06F63143A7
:100D800000F00046B6F1004F02D1034EF16101E0E0
:100D9000014E7160F0BD00000000014002460020DD
:100DA00093680B400BB1012000E0002070474161C7
:100DB000704701617047000010B500BF0748006828
:100DC000642100FB01F4080701F09EF804440020B0
:100DD0004FF080418884204610BD00007000002044
:100DE00000BFFEE708B50121082000F099FC4FF490
:100DF000E040ADF8000048208DF80300694608483F
:100E0000FFF7F9FE002007490870488088710649FD
:100E1000087048808871054908704880887108BD4D
:100E2000000C01401C000020240000202C000020A9
:100E300010B552480068012813D1002050490870AD
:100E4000488008468079012827D100208871012038
:100E50004C4908701E20FFF783FD4BA0FFF7BAF93D
:100E60001BE047480078C0B945484088401C4449C9
:100E7000488008464088502801DD0120887140489C
:100E80004088B0F5FA7F08DD00203D498871488030
:100E90000120087004203B49087038480830006879
:100EA000012813D100203B4908704880084680790A
:100EB00001282DD1002088710220324908701E209F
:100EC000FFF74EFD34A0FFF785F921E031480078A7
:100ED000F0B930484088401C2E4948800846408878
:100EE000502801DD012088712A484088B0F5FA7F3A
:100EF0000EDD0020274988714880012008700520F8
:100F0000204908703C20FFF72BFD26A0FFF762F96F
:100F10001A48001D0068012813D1002025490870D7
:100F2000488008468079012827D100208871032055
:100F3000144908701E20FFF713FD1FA0FFF74AF9A0
:100F40001BE01C480078C0B91A484088401C194969
:100F5000488008464088502801DD012088711548E6
:100F60004088B0F5FA7F08DD00201249887148807A
:100F70000120087006200349087010BD308121420D
:100F80001C00002034000020C9CFBCFCB0B4CFC28C
:100F90000D0A000024000020D6D0BCFCB0B4CFC2A3
:100FA0000D0A0000D6D0BCFCB3A4B0B4CFC20D0A69
:100FB000000000002C000020CFC2BCFCB0B4CFC2A7
:100FC0000D0A000008B50121112000F0A9FB012045
:100FD00000F062FB002000F02DFC0020FFF7CCFCAD
:100FE0000020FFF7C3FC4FF40050ADF800000220D2
:100FF0008DF8020010208DF8030069460448FFF7C1
:10100000FAFD4FF400510248FFF7D1FE08BD000081
:101010000010014000BFFEE7E8B91E49096821F051
:101020000F011C4A11601146096841F0010111606D
:101030000021194A11601749096821F0F001154A89
:1010400011601146096841F0100111600021134A36
:10105000C2F8A4111CE00F49096821F00F010D4AE4
:1010600011601146096841F00101116001210A4A2D
:1010700011600849096821F0F001064A1160114623
:10108000096841F0100111600121044AC2F8A4115D
:1010900070470000040C0140A081214200802142E1
:1010A00010B504460E48006820F00F000C49086097
:1010B0000846006840F00100086000200949086007
:1010C0000748006820F0F0000549086008460068FD
:1010D00040F0900008602146034801F094F810BDEC
:1010E000040C0140A08121420008004010B50446D4
:1010F0000E48006820F0F0000C49086008460068BF
:1011000040F01000086000200949086007480068A6
:1011100020F00F00054908600846006840F009000B
:1011200008602146034801F06CF810BD040C014032
:10113000A481214200080040E8B91E49096821F055
:1011400070611C4A11601146096841F0807111609C
:101150000021194A11601749096821F07041154AA8
:1011600011601146096841F0805111600021134A55
:10117000C2F89C111CE00F49096821F070610D4A0A
:1011800011601146096841F08071116001210A4A1D
:1011900011600849096821F07041064A1160114642
:1011A000096841F0805111600121044AC2F89C1184
:1011B00070470000000C01409881214200802142CC
:1011C00010B504460E48006820F070600C490860B5
:1011D0000846006840F080700860002009490860F7
:1011E0000748006820F0704005490860084600681C
:1011F00040F0104008602146034801F000F810BD9F
:10120000000C0140988121420008004010B50446BE
:101210000E48006820F070400C49086008460068DD
:1012200040F08050086000200949086007480068C5
:1012300020F07060054908600846006840F01060C2
:1012400008602146034800F0D8FF10BD000C0140A3
:101250009C812142000800407047000070B50021C9
:1012600000230F22C47804B3154C246804F4E0640E
:10127000C4F5E064210AC1F10403CA40447804FAC9
:1012800003F184781440214309010E4C0678A155DE
:10129000047804F01F050124AC4005786D11AD0001
:1012A00005F1E025C5F8004109E0047804F01F05C8
:1012B0000124AC40044D0678761145F8264070BDF7
:1012C0000CED00E000E400E080E100E002490143B1
:1012D000024A1160704700000000FA050CED00E0C2
:1012E00070B5002419E004F1B001C8B2002100F08B
:1012F000ABF90021084600F0A7F90021102000F00A
:10130000A3F9002505E00121002000F09DF9681CEB
:10131000C5B2802DF7DB601CC4B2082CE3DB70BDC6
:1013200000B587B0012141F20C0000F0F9F903206B
:10133000ADF8040010208DF8070003208DF806009A
:1013400001A92748FFF757FC03212548FFF731FD86
:101350002020ADF8040003208DF8060018208DF839
:10136000070001A91F48FFF746FC8020ADF80400E4
:1013700001A91C48FFF73FFC1020ADF804008DF8D0
:10138000070001A91748FFF736FC10211548FFF7A1
:1013900010FD0020ADF808004FF48270ADF80A008F
:1013A0000020ADF80C000220ADF80E000120ADF8D1
:1013B00010004002ADF812000820ADF81400002023
:1013C000ADF816000720ADF8180002A9064800F095
:1013D000CBFA0121044800F0ADFA07B000BD0000CF
:1013E000000C0140000801400030014010B5FFF73B
:1013F00097FF01214D48FFF7DCFC642001F0A6F9BE
:1014000001214A48FFF7D3FCC82001F09FF90121D0
:101410004648FFF7CEFCC82001F098F90021AE2025
:1014200000F012F900212E2000F00EF900210846EC
:1014300000F00AF90021102000F006F900214020F8
:1014400000F002F90021B02000F0FEF80021812018
:1014500000F0FAF80021FF2000F0F6F80021A120AA
:1014600000F0F2F80021A62000F0EEF80021A820FC
:1014700000F0EAF800213F2000F0E6F80021C82043
:1014800000F0E2F80021D32000F0DEF80021084649
:1014900000F0DAF80021D52000F0D6F800218020F5
:1014A00000F0D2F80021D82000F0CEF8002105206D
:1014B00000F0CAF80021D62000F0C6F80021084646
:1014C00000F0C2F80021D92000F0BEF80021F12080
:1014D00000F0BAF80021DA2000F0B6F8002112205E
:1014E00000F0B2F80021DB2000F0AEF8002130203F
:1014F00000F0AAF800218D2000F0A6F800211420A9
:1015000000F0A2F80021A42000F09EF80021A620FF
:1015100000F09AF80021AF2000F096F8FFF7E0FE07
:101520000021084600F004F810BD0000000C014046
:1015300070B504460D4605F1B001C8B2002100F0B7
:1015400083F804F00F00002100F07EF8102141EA3A
:101550001410002100F078F870BD00002DE9F0476C
:1015600007460E469046994600250024A8F1200023
:10157000C5B27F2F02DD0027B01CC6B2B9F1100F33
:1015800024D131463846FFF7D3FF002408E004EBAE
:101590000511194A505C012100F056F8601CC4B2D4
:1015A000082CF4DB701CC1B23846FFF7C1FF0024E1
:1015B00009E004EB051108310F4A505C012100F0ED
:1015C00043F8601CC4B2082CF3DB13E0701CC1B2FA
:1015D0003846FFF7ADFF00240AE005EB4501074A56
:1015E00002EB4101085D012100F02EF8601CC4B23D
:1015F000062CF2DBBDE8F087803C0008583A000872
:101600002DE9F04104460D4616469846002715E0A0
:10161000F25D434629462046FFF7A0FF04F108008B
:10162000C4B2802C08DB0024B8F1100F02D1A81C32
:10163000C5B201E0681CC5B2781CC7B2F05D0028D5
:10164000E6D1BDE8F081000070B505460C4624B136
:1016500002210C48FFF7ADFB03E002210948FFF728
:10166000A6FB10210848FFF7A2FB284600F046F928
:1016700010210548FFF79DFB02210248FFF799FB67
:1016800070BD0000000C014000080140002001492D
:101690000860704770000020014908627047000030
:1016A00000000E427047000001460020034A5068C7
:1016B00020F4404008435060704700000010024092
:1016C00029B1064A52690243044B5A6104E0034AB5
:1016D00052698243014B5A6170470000001002407A
:1016E00029B1064AD2690243044BDA6104E0034A95
:1016F000D2698243014BDA6170470000001002405A
:1017000029B1064A12690243044B1A6104E0034AF4
:1017100012698243014B1A617047000000100240B9
:1017200029B1064A92690243044B9A6104E0034AD4
:1017300092698243014B9A61704700000010024099
:1017400029B1064AD2680243044BDA6004E0034A36
:10175000D2688243014BDA607047000000100240FB
:1017600030B500210022002400232D4D6D6805F0C6
:101770000C0121B1042905D0082923D105E0294D08
:10178000056022E0274D05601FE0254D6D6805F4DA
:101790007012234D6D6805F48034022505EB9242EA
:1017A0001CB9214D554305600BE01D4D6D6805F4D6
:1017B00000351DB11C4D5543056002E0194D5543E0
:1017C000056002E0174D056000BF00BF144D6D6855
:1017D00005F0F0010909154D6B5C0568DD404560B9
:1017E0000F4D6D6805F4E061090A104D6B5C4568AA
:1017F000DD4085600A4D6D6805F46051C90A0B4DE6
:101800006B5C4568DD40C560054D6D6805F4404181
:10181000890B074D6B5CC568B5FBF3F5056130BD01
:101820000010024000127A0000093D0076000020FE
:101830008600002000210B4A11700A4A203A82F8E3
:101840002010012802D0042808D103E00121054A14
:10185000117004E00521034A117000E000BF00BFD1
:10186000704700002010024008B501210A48FFF728
:101870004DFA01210520FFF753FF4FF40040ADF86A
:10188000000010208DF8030003208DF80200694647
:101890000248FFF7B0F908BD00023000000801401F
:1018A0002DE9F05F8246BAF1B40F01DB4FF0B40AC4
:1018B000BAF1000F01DC4FF0000A504601F0ECFFD6
:1018C000834601F0BDFF0646084A094B01F0D0FDF2
:1018D00004460022074B01F06DFB804601F09AFDA3
:1018E000C0B205490880BDE8F09F00009A99999917
:1018F0009999B93F000014407400002010B50446C7
:1019000000BF02210A4800F021F80028F9D0214642
:10191000074800F027F800BF0121054800F016F83D
:101920000028F9D0024800F01AF8C0B210BD00003B
:101930000030014021B1028842F04002028004E000
:1019400002884FF6BF731A4002807047024600209B
:1019500013890B400BB1012000E0002070470146C5
:10196000888970478181704710B50022028802F48F
:1019700041520B884C8823438C882343CC882343D3
:101980000C8923434C8923438C892343CC892343EB
:101990001A430280838B4FF2FF74234083830B8AA8
:1019A000038210BD704710B500F002F810BD0000B2
:1019B0000CB50020019000903348006840F480305E
:1019C0003149086000BF3048006800F400300090E2
:1019D0000198401C0190009818B90198B0F5A06FCB
:1019E000F1D12948006800F4003010B101200090C6
:1019F00001E0002000900098012843D123480068AE
:101A000040F01000214908600846006820F00300FB
:101A100008600846006840F0020008601A48406804
:101A2000194948600846406848600846406840F4E4
:101A3000806048600846406820F47C104860084692
:101A4000406840F4E81048600846006840F0807044
:101A5000086000BF0C48006800F000700028F9D052
:101A60000948406820F0030007494860084640687C
:101A700040F00200486000BF0348406800F00C00DE
:101A80000828F9D10CBD00000010024000200240DF
:101A9000042808D14FF0E021096941F004014FF01A
:101AA000E022116107E04FF0E021096921F0040113
:101AB0004FF0E022116170477047000010B51348E5
:101AC000006840F00100114908600846406810496C
:101AD00008400E494860084600680E4908400B4916
:101AE00008600846006820F48020086008464068C6
:101AF00020F4FE0048604FF41F008860FFF753FF9A
:101B00004FF000600449086010BD00000010024062
:101B10000000FFF8FFFFF6FE08ED00E010B5012120
:101B2000880700F0F4F908B30121880700F0E9F80C
:101B30000F480068401C0E4908600E480078401CA1
:101B4000C0B20C4908700C490988884203DA0120A8
:101B50000A4908600AE007480078C72803DA00202D
:101B60000649086002E000200249087010BD00002C
:101B7000700000208A00002074000020BC01214277
:101B800010B50121134800F0C2F908B30121114832
:101B900000F0B7F801201049087010480088401C78
:101BA0000E49088008460088642190FBF1F201FB91
:101BB000120010B901200A49087008480088B0F5E1
:101BC000FA7F05DB002005490880012005490870DF
:101BD00010BD0000000400400300002000000020B1
:101BE00004000020050000201FB501210220FFF79E
:101BF00077FD40F2E730ADF808004720ADF804006B
:101C00000020ADF80A00ADF8060001A90C4800F06C
:101C1000FDFA012211460A4800F08AF91D208DF8CC
:101C2000000001208DF801008DF802008DF80300FE
:101C30006846FFF713FB0121014800F065F81FBD5E
:101C40000004004000B589B001210420FFF748FDE1
:101C500001210820FFF764FD4FF47070ADF82000FB
:101C600018208DF8230001208DF8220008A92148B2
:101C7000FEF7C1FF6320ADF8180040F2CF20ADF8A9
:101C800014000020ADF81A00ADF8160005A91A4896
:101C900000F0BCFA6020ADF804000120ADF80600A9
:101CA0000020ADF80C0001A9134800F04BF901A980
:101CB000114800F09DF901A90F4800F0F9F901A9B8
:101CC0000D4800F04FFA08210B4800F087F9082171
:101CD000094800F0DFF90821074800F039FA082127
:101CE000054800F07DFA0121034800F00DF809B025
:101CF00000BD0000000C014000080040CA43028201
:101D00007047CA430282704721B1028842F0010243
:101D1000028004E002884FF6FE731A40028070478A
:101D200010B504466848844208D10121C014FFF769
:101D300007FD0021E014FFF703FDC4E0B4F1804F7C
:101D400008D101210846FFF7DBFC00210120FFF745
:101D5000D7FCB8E05D48844208D101210220FFF79A
:101D6000CFFC00210220FFF7CBFCACE058488442B6
:101D700008D101210420FFF7C3FC00210420FFF754
:101D8000BFFCA0E05348844208D101210820FFF79E
:101D9000B7FC00210820FFF7B3FC94E04E488442D2
:101DA00008D101211020FFF7ABFC00211020FFF724
:101DB000A7FC88E04948844208D101212020FFF790
:101DC0009FFC00212020FFF79BFC7CE044488442DC
:101DD00008D101214014FFF7B3FC00216014FFF784
:101DE000AFFC70E03F48844209D10121C804FFF7ED
:101DF000A7FC00214FF40020FFF7A2FC63E03A4863
:101E0000844209D101210805FFF79AFC00214FF413
:101E10008010FFF795FC56E03448844209D1012137
:101E20004805FFF78DFC00214FF40010FFF788FCF8
:101E300049E02F48844208D101214020FFF760FC8F
:101E400000214020FFF75CFC3DE02A48844208D195
:101E500001218020FFF754FC00218020FFF750FC77
:101E600031E02548844208D101218015FFF748FC64
:101E70000021A015FFF744FC25E02048844209D149
:101E800001210804FFF75CFC00214FF48030FFF7CC
:101E900057FC18E01A48844209D101214804FFF791
:101EA0004FFC00214FF40030FFF74AFC0BE01548CF
:101EB000844208D101218804FFF742FC00214FF43D
:101EC0008020FFF73DFC10BD002C014000040040C5
:101ED00000080040000C00400010004000140040CA
:101EE00000340140004C01400050014000540140CA
:101EF00000180040001C004000200040004001404D
:101F000000440140004801400146888C704730B5CC
:101F10000246002000230024158A05EA0103958962
:101F200005EA010413B10CB1012000E0002030BD2E
:101F30001AB183890B43838102E083898B438381B8
:101F40007047000070B5002400220023058C4FF676
:101F5000FE7635400584028C8388048B4FF68F759E
:101F60002C40B51E2C400D882C43751E2A400D892F
:101F70002A434D882A43144DA8420BD0134DA84242
:101F800008D0134DA84205D0124DA84202D0124DE0
:101F9000A84213D14FF6F7752A404D892A434FF6D0
:101FA000FB752A408D882A434FF6FF652B404FF67C
:101FB000FF552B408D892B43CD892B438380048390
:101FC000CD888586028470BD002C0140003401401C
:101FD0000040014000440140004801400A46002101
:101FE000018B4FF6F77319401143018370470000CE
:101FF00070B5002400220023058C4FF6EF763540A3
:102000000584028C8388048B48F6FF752C404FF6BC
:10201000FF452C400D884FF6FF7606EA05252C4338
:102020004FF6DF752A400D8906EA05152A434D88CB
:1020300006EA05152A43154DA84202D0144DA842C0
:102040001DD14FF67F752A404D894FF6FF7606EA7F
:1020500005152A434FF6BF752A408D8806EA0515F7
:102060002A434FF6FF352B404FF2FF752B408D89E9
:1020700006EA85052B43CD8906EA85052B43838037
:102080000483CD880587028470BD0000002C0140C8
:10209000003401400A460021018B4FF2FF731940C2
:1020A0004FF6FF7303EA02231943018370470000D0
:1020B00070B5002400220023058C4FF6FF663540E2
:1020C0000584028C8388848B4FF68F752C404FF6E5
:1020D000FC752C400D882C434FF6FF552A400D8986
:1020E0004FF6FF7606EA05252A434D8806EA0525C0
:1020F0002A43154DA84202D0144DA8421DD14FF2DB
:10210000FF752A404D894FF6FF7606EA05252A43DA
:102110004FF6FF352A408D8806EA05252A434EF6FC
:10212000FF752B404DF6FF752B408D8906EA05158E
:102130002B43CD8906EA05152B4383808483CD8804
:102140008587028470BD0000002C014000340140EE
:102150000A460021818B4FF6F773194011438183A2
:102160007047000070B5002200230024058C4EF655
:10217000FF7635400584038C8488828B48F6FF7592
:102180002A404FF6FF452A400D884FF6FF7606EAB3
:1021900005252A434DF6FF752B400D8906EA0535C6
:1021A0002B434D8806EA05352B430B4DA84202D040
:1021B0000A4DA84208D14BF6FF752C408D894FF689
:1021C000FF7606EA85152C4384808283CD88A0F8AB
:1021D0004050038470BD0000002C014000340140D9
:1021E0000A460021818B4FF2FF7319404FF6FF73AF
:1021F00003EA022319438183704781867047018770
:10220000704781877047A0F840107047002202880D
:102210001D4B98420ED01D4B98420BD0B0F1804F11
:1022200008D01B4B984205D01A4B984202D01A4B4B
:10223000984204D14FF68F731A404B881A43174BBC
:10224000984207D0164B984204D04FF6FF431A40ED
:10225000CB881A4302808B8883850B8803850A4BC1
:1022600098420BD0094B984208D00E4B984205D0AB
:102270000D4B984202D00D4B984201D10B7A038648
:102280000123838270470000002C0140003401408C
:102290000004004000080040000C00400010004016
:1022A000001400400040014000440140004801404B
:1022B00010B5002440F225511B4800F091F8002889
:1022C00031D0194800F048F9C4B2242C05D10120BE
:1022D0001649087000201649086014480078012843
:1022E00003D1144812490968445410480078012861
:1022F0000AD1232C08D11049087000200B4908701E
:102300000B4800680D49086009480068401C0849EE
:10231000086008460068502805DB00200860034973
:1023200008700549087010BD0038014064000020A5
:1023300060000020D60100206C0000206800002012
:1023400010B540F225511D4800F04AF810B31B4863
:1023500000F002F9C4B21A48008800F40040C8B97D
:102360001748008800F4804060B10A2C03D0002098
:102370001349088020E01248008840F400401049CA
:10238000088019E00D2C06D10D48008840F48040EB
:102390000B49088010E00A480088C0F30D00094985
:1023A0000C5407480088401C0549088008460088EE
:1023B000C72801DD0020088010BD00000048004053
:1023C0005C0000200E01002021B1828942F40052FD
:1023D000828104E082894DF6FF731A408281704742
:1023E00070B50246002400230025002040F66A163E
:1023F000B14200D100BFC1F3421501F01F03012615
:1024000006FA03F3012D02D19689334006E0022D2E
:1024100002D1168A334001E0968A33400C1201261D
:1024200006FA04F41688344013B10CB1012000E020
:10243000002070BDF0B503460024002600250020D2
:1024400040F66A17B94200D100BF1846C1F34214E2
:1024500001F01F06012707FA06F5012C01D10C3007
:1024600004E0022C01D1103000E014301AB10768EA
:102470002F43076002E00768AF430760F0BD00002C
:102480002DE9F04786B005460E460024A24600BF5F
:10249000A1460027B08900B100BF2F462C8A4CF618
:1024A000FF700440F08804432C82AC894EF6F31090
:1024B0000440B08831890843718908430443AC81E2
:1024C000AC8A4FF6FF400440B0890443AC8201A8B7
:1024D000FFF746F91F48874202D1DDF810A001E05E
:1024E000DDF80CA0A88900F4004040B10AEBCA0056
:1024F00000EB0A1031684900B0FBF1F807E00AEB85
:10250000CA0000EB0A1031688900B0FBF1F86420C2
:10251000B8FBF0F004012009642101FB1089A889AF
:1025200000F4004040B1322000EBC900B0FBF1F0F4
:1025300000F00700044308E0322000EB091064219A
:10254000B0FBF1F000F00F0004432C8106B0BDE8B1
:10255000F08700000038014001468888C0F3080079
:102560007047000000B585B001210420FFF7D8F8BE
:102570004FF40060ADF8100003208DF81200102019
:102580008DF8130004A92748FEF735FB4FF40061CE
:102590002448FEF70CFC4FF48070ADF810000420C6
:1025A0008DF8130004A91F48FEF725FB4FF4807136
:1025B0001C48FEF7FCFB01210846FFF791F84FF09D
:1025C0008040FFF7ADFB6320ADF808004720ADF871
:1025D00004000020ADF80A00ADF8060001A94FF094
:1025E0008040FFF713FE01218807FFF787FB0122D8
:1025F00011469007FFF79CFC1C208DF8000001207D
:102600008DF8010000208DF8020001208DF80300F4
:102610006846FEF723FE01218807FFF775FB05B02A
:1026200000BD00000008014000BFFEE708B5012121
:102630000846FFF775F801210C48FEF767FB0121FA
:102640000820FFF76DF83020ADF8000010208DF85D
:10265000030001208DF8020069460548FEF7CBFA19
:1026600030210348FEF7A5FB08BD00000001300043
:10267000000C014010B530210148FEF79AFB10BD57
:10268000000C014010B50446012C06D0022C0DD0E0
:10269000032C14D0042C1CD116E010210E48FEF798
:1026A00086FB20210C48FEF784FB13E010210A482A
:1026B000FEF77FFB20210848FEF779FB0AE0302176
:1026C0000548FEF774FB05E030210348FEF771FB77
:1026D00000E000BF00BF10BD000C0140014600BF7C
:1026E0007047000010B507480078012808D1002085
:1026F00004490870FEF79CFBFDF790FFFEF716F902
:1027000010BD00000300002010B56FF00400FFF7BB
:10271000BFF90A480068C0080949B0FBF1F009494F
:1027200008800846008800EB4001C1EBC0104FF65E
:10273000FF7101EAC0000449088010BD8C00002030
:1027400040420F00180000201A000020014606E059
:1027500042F6E06200E0521E002AFCD1491E002928
:10276000F6D1704710B50146042309B9002010BD09
:10277000012906D100E000BF581EC0B2031EFAD1E5
:10278000F5E7012903D9B1F57A7F00D2491E124835
:10279000008848434FF0E02460610020A06120469B
:1027A000006940F00100206100BF4FF0E0200269A5
:1027B00002F0010018B102F480300028F5D04FF08B
:1027C000E020006920F001004FF0E02420610020AB
:1027D000A06100BFCBE700001800002010B536480C
:1027E000007820B1012815D0022862D14EE033488C
:1027F000007870B9012031490870102330A20021FF
:102800000846FEF7FDFE102331A200210846FEF720
:10281000F7FE4FE03248007870B901203049087067
:10282000102330A200210846FEF7EAFE102331A251
:1028300000210846FEF7E4FE2948407870B90120DF
:102840002749487010232EA202210020FEF7D8FE4F
:102850000823304A02210020FEF7D2FE204880786B
:1028600098B901201E498870082325A20421002060
:10287000FEF7C6FE0823284A04210020FEF7C0FE0A
:102880002548002101604160018113E02348007860
:1028900070B9012021490870102312A200210846B6
:1028A000FEF7AEFE10231EA200210846FEF7A8FE8A
:1028B00000E000BF00BF10BD0200002008000020A3
:1028C0002020202020202020202020200000000088
:1028D00044454641554C545F4D4F4445000000006F
:1028E0000D0000202020202020202020202020203B
:1028F0002000000050484F4E455F4D4F44450000BA
:1029000020202020202020202020202020202020C7
:1029100000000000A0000020B400002012000020F1
:102920004155544F5F4D4F444500000000BF054ADC
:10293000128802F04002002AF9D0C2B2014B1B1DDE
:102940001A807047004800402DE9F05F0024A1463E
:102950004FF400611E48FEF72CFA1920FFF702FF22
:102960004FF400611A48FEF722FA00BF4FF480715D
:102970001748FEF713FA0028F8D0FEF787FE00BFCD
:102980004FF480711248FEF709FA0128F8D0FEF7DB
:1029900030F8FEF711FA04460E48844203D94FF08E
:1029A000FF30BDE8F09F204600F076FF83460A49DD
:1029B00000F086FF824600F043FF07460022074BE7
:1029C00000F0A0FB054600F0F5FC81464846E8E72C
:1029D00000080140D00101000000884100408F4004
:1029E00010B55548007820B101283FD002286ED19B
:1029F0006EE052480078012806D0022813D0032840
:102A000015D005282FD121E001204B4908704CA09A
:102A1000FDF7E0FB4E4800F009FAFEF761FC0020EC
:102A20004649087020E00020444908701CE002205C
:102A30004149087047A0FDF7CDFBFEF751FC49481E
:102A400000F0F4F900203D4908700DE000203A49FB
:102A5000087045A0FDF7BEFB474800F0E7F90020ED
:102A60003649087000E000BF00BF63E033480078DB
:102A7000012806D0022810D0032812D0052823D11F
:102A800013E03E48006808B9012000E000203B49FF
:102A9000086000202949087017E0002027490870C5
:102AA00013E00020254908700FE00020224908703B
:102AB0002DA0FDF78FFB304800F0B8F9FEF710FCB1
:102AC00000201E49087000E000BF00BF32E030E087
:102AD0001A480078012806D0022810D0032812D006
:102AE000052823D113E02548006808B9012000E03B
:102AF00000202249086000201049087017E00020DB
:102B00000E49087013E000200C4908700FE0002007
:102B10000949087014A0FDF75DFB174800F086F91D
:102B2000FEF7DEFB00200549087000E000BF00BF93
:102B300000E000BF00BF10BD0200002034000020F4
:102B4000BDF8C8EB20D2A3BFD8C4A3CABD0D0A00EC
:102B50000D000020BDF8C8EB20D7D4B6AFC4A3CA7F
:102B6000BD0D0A0012000020BDF8C8EB20B4FDBB6B
:102B7000FAC4A3CABD0D0A0008000020B401224215
:102B80004FF4A060FEF7A2FBFFF7BEFD4FF4165016
:102B900000F0C0F94FF4E13000F068F9FFF746FDAE
:102BA0000120FFF76FFDFEF70DFAFFF71DF8FFF7A5
:102BB00049F8FEF717F9FDF7EDFFFDF7CBFCFDF740
:102BC00099FEFFF7CFFCFEF74FFEFEF70FFCFEF776
:102BD00087FBFFF74FFD10E0FFF784FDFFF700FFD5
:102BE000FFF7FCFD00F00CF800F03AF8034800781D
:102BF000012802D1002001490870EDE704000020FF
:102C000010B50D480078012814D10C490CA0FDF72F
:102C1000E1FA142209491048FDF761FB00200F4931
:102C2000487050210548FDF79FFB00F029F800206F
:102C30000149087010BD00006C000020D601002082
:102C4000CAD5B5BDB5C4D3D0D0A7C3FCC1EECEAAFA
:102C5000A3BA25730D0A0000A00000200D0000207B
:102C600010B506480078012807D100240020034948
:102C70000870FFF769FE044600BF10BD0500002084
:102C8000FEB54FA14F48FDF718FB00283BD04EA1E1
:102C90004C48FDF712FB002834D000200090019032
:102CA000029000265A214748FDF7FDFA0446641CAD
:102CB00023214448FDF7F7FA0546A54221D9281BF0
:102CC000C6B2324621466846FDF709FB3FA0FDF734
:102CD00081FA694641A0FDF77DFA324669464548CA
:102CE000FDF7FDFA002044498870684600F0A5F819
:102CF0004249087008460078FEF7D2FD002040499E
:102D00000870FEBD5AE023212E48FDF7CCFA044698
:102D100024212C48FDF7C7FA201A0C284EDD29483B
:102D200040783038052848D2DFE800F0030F1D2B2B
:102D30003900304833A10A68026009790171002026
:102D40002D498870FDF720FE37E02A482FA10A8818
:102D50000280897881700020274988702C4800788B
:102D6000FDF73EFE29E023482AA10A68026009799E
:102D7000017100202049887025480078FDF727FE62
:102D80001BE01C4825A10A68026009790171002036
:102D9000194988701E480078FDF707FE0DE01548B8
:102DA00020A10A6802608988818000201249887009
:102DB00017480078FDF702FE00BF00BF00BFA0E784
:102DC00034574400A000002050545A00BEDFD3D036
:102DD00050545AD6B8C1EE0D0A000000D3D0D0A787
:102DE000B6E6BBFAD7D6B7FBCAC7A3BA25730D0A96
:102DF00000000000B40000200D00002007000020AB
:102E00006C00002073746F7000000000676F00009A
:102E1000060000206261636B000000006C65667450
:102E200000000000726967687400000000210170F2
:102E300041708170C17001717047014600200FE040
:102E40000A78302A0ADB0A78392A07DC0A78303A0D
:102E500000EB800302EB4300491C01E0002002E08C
:102E60000A78002AECD100BF7047000010B586B088
:102E7000044601210820FEF753FC01218804FEF7D7
:102E80002FFC4FF48060ADF8140003208DF816007D
:102E900018208DF8170005A91C48FDF7ACFE4FF46B
:102EA0000060ADF8140004208DF8170005A917483C
:102EB000FDF7A1FE27208DF8000002208DF801000B
:102EC0008DF8020001208DF803006846FEF7C6F970
:102ED00001940020ADF80800ADF80A00ADF80C0030
:102EE000ADF810000C20ADF80E0001A90848FFF75E
:102EF000C7FA012240F225510548FFF79BFA01214C
:102F00000348FFF761FA06B010BD0000000C014055
:102F10000048004010B586B00446012144F2040088
:102F2000FEF7FEFB4FF40070ADF8140003208DF89F
:102F3000160018208DF8170005A91C48FDF75BFE48
:102F40004FF48060ADF8140004208DF8170005A937
:102F50001648FDF750FE25208DF8000003208DF85F
:102F600001008DF8020001208DF803006846FEF78D
:102F700075F901940020ADF80800ADF80A00ADF82D
:102F80000C00ADF810000C20ADF80E0001A90848A7
:102F9000FFF776FA012240F225510548FFF74AFA79
:102FA00001210348FFF710FA06B010BD00080140E8
:102FB0000038014010B591EA030F48BF83F0004389
:102FC00000F15C83841A71EB030C05D2121943EBF8
:102FD0000C03001B61EB0C01DFF824E14FEA1154F4
:102FE000A4EB135C1EEA430F18BF9EEA445F73D044
:102FF00023EA0E03DCF1200E21EA045143F480138E
:1030000032D322FA0CFE10EB0E0023FA0CFE41EB39
:103010000E01CCF1200E03FA0EFE10EB0E0051F162
:103020000001B1F5801FCCF1200E32D201EB04512A
:1030300012FA0EF2BDE8104058BF7047401C38BF6E
:103040005FEA420218BF7047002814BF20F0010059
:1030500041F100014FEA410313F5001F38BF7047EB
:10306000A1F1C04100F0FCBA012A43EB0302ACF12C
:10307000200CDCF11F0E32BF4FF0000E23FA0CF3D0
:1030800010EB030041EB0451B4EB115FD0D0A1EB86
:10309000045101F5801149085FEA300001EB045149
:1030A0000ED350F1000038BF12FA0EFE08D1BDE871
:1030B0001040C9E7401C38BF5FEA4202CAD1C3E7EB
:1030C000BDE810404FEA410313F5001F38BF7047B9
:1030D000A1F1C04100F0C4BA9EEA445F08D011EAF1
:1030E0005E0FBDE8104004BF01F0004100207047B2
:1030F000BDE8104070B500F065FA00BF64FBBE3E4D
:103100000000E0FF2DE9C04130B4DFF8A0C23CEA86
:10311000111418BF3CEA131400F0EC8081EA030597
:103120001CEA111444EAD57418BF1CEA131500F008
:10313000C780A4EB05044FF0004545EAC12145EAEC
:10314000C32341EA505143EA525304F17F74994238
:1031500004F500344FEAC0204FEAC22208BF904273
:1031600000F09C804FEA13650FF24016765D4FEA3F
:10317000134506FB05F7C7F1807706FB07F74FEA13
:10318000D737A7FB03687642C8F58038A7FB06CE81
:1031900038BFA8F1010807FB08E64FF0000EA6FBB8
:1031A000028CE6FB03CEDCF1000CCEF1004E38BF02
:1031B000AEF1010EA6FB0C584FF000074FF00005D2
:1031C000E6FB0E87A1FB08C6A0FB07CE16EB0E069A
:1031D00045F10005E1FB076515F1E04E7EBFA4F562
:1031E00080345FEA46066D4116F1800745F100051F
:1031F0004FEA17274FEA066647EA0567A6F1DE465B
:10320000B6F1805F4FEA15251FD9384624F0010C2E
:1032100005EBC471BCF1FE6F01EB0C1102D8F0BCE0
:10322000BDE8008124425CBF01F5801E9EEAC47F98
:1032300002D4F0BCBDE80081244238D4F0BCA1F136
:10324000C041BDE8004100F00BBA4FEAD22242EA89
:1032500043524FEAD323A7FB02864FEAD02040EA2D
:10326000415007FB03661EEA0E0F4FEAD12105FB12
:10327000026658BFA6EB0056B6EB00564FEA520E58
:103280004EEAC37E18EB0E0E56EB530EBDD518EB6F
:1032900002085E417F1C55F10005B6E74FF480152A
:1032A0004FF000074FF000064FF00008ADE7F0BC0C
:1032B0004FF0000001F1C04101F00041BDE8008184
:1032C00011EA0C1F0CEA131500D00CE013EA0C1FD6
:1032D00000F025804FF00000F0BC81EA030101F00E
:1032E0000041BDE80081F0BCBDE8004181EA030176
:1032F00000F0B6B9F0BCBDE8004170B500F062F96D
:10330000097EFC3E00F007B881EA03014FF000009F
:1033100001F00041704781EA030100F0A1B9F0BC5F
:10332000BDE800414FF0000021497047FFFDFBF967
:10333000F7F5F4F2F0EEEDEBE9E8E6E4E3E1E0DEE8
:10334000DDDBDAD8D7D5D4D3D1D0CFCDCCCBCAC85A
:10335000C7C6C5C4C2C1C0BFBEBDBCBBBAB9B8B781
:10336000B6B5B4B3B2B1B0AFAEADACABAAA9A8A874
:10337000A7A6A5A4A3A3A2A1A09F9F9E9D9C9C9B42
:103380009A999998979796959594939392919190ED
:103390008F8F8E8E8D8C8C8B8B8A8989888887877E
:1033A0008685858484838382828181800000FF07F3
:1033B0000000F87F4FEA41034FEA5353A3F58063BF
:1033C000D3F11E03C8BFD3F1210C0CDD4FF0004236
:1033D00042EAC12242EA505232FA03FC8CEAE17C12
:1033E000ACEBE1707047102BC4BF0020704703F5B1
:1033F000787CBCF1FF3F04D06FF0004282EA2100EC
:10340000704770B500F0DEF84992248000207047C4
:10341000F2E700004FEA1153A3F58063D3F11E03D6
:10342000A8BFD3F1200C08DB4FF0004242EAC122D2
:1034300052EA505232FA03F0704709420BD4102B73
:10344000C4BF0020704703F5787CBCF1FF3F05D076
:103450004FF0FF3070474FF00000704770B500F03C
:10346000B1F800BF4992248000207047F0E70000C7
:10347000DFF848C170B51CEA111E1EBF1CEA131507
:103480009EEA0C0F95EA0C0F00F06F8081EA0304AE
:1034900023EA4C134EEAD47E21EA4C1141F4801108
:1034A00043F48013AE44A1FB024CA0FB0365AEF1D4
:1034B0007F7E361955EB0C05A1FB034C4CF1000344
:1034C000A0FB021C16EB0C06654153F100030942F8
:1034D00018BF46F0010613F4007F0BD14FEA033109
:1034E0004FEA0530340341EA155140EA16506FF0B7
:1034F00003020AE04FEAC3214FEAC520F40241EA81
:10350000555140EA56506FF0020202EB2E4201EB99
:10351000025585EACE710AD05FEA440C18BF24F048
:10352000004450F1000041F1000120EAD47040F263
:10353000FE7C624500D270BDA84214BF4FF08044AB
:103540004FF04044002E08BF0024BEF1806FA8BF9A
:10355000A1F1C041BDE8704080F282804FF00000D0
:1035600001F1C04101F0004170479EEA0C0F0CEAE6
:10357000131518BF95EA0C0F06D04FF0000081EA32
:10358000030E0EF0004170BD00F01CF88900013EF2
:1035900000F007B800F009B84FEA430C5FEA5C5C42
:1035A00008D081EA030100F05BB84FEA410C5FEA02
:1035B0005C5CF6D14FF00000014970470000FF0746
:1035C0000000F87F0EF1020E2EF0030E5EF8046B81
:1035D000364205D4012A43EB030515F5001F12D826
:1035E000012841EB010C1CF5001F0CD80ED14FEA4D
:1035F000D17C15F5001F0CEB4C0C0CF1020C08BF34
:103600004CEBD37C04E04FF0080C01E04FEAD37C94
:103610000CEB4C0526FA05F606F00706B6F1040C8D
:1036200006D20EEB860CBDE870404CF0010C6047F2
:10363000DFE80CF0090B02024FF000414FF00000F0
:10364000A1F5002170BD19461046012851EB010477
:1036500018BFD4F5001484BF002001F0004170BDF4
:103660000808A0F500114FEA3101704710B591EA42
:10367000030F48BF83F000433FF5A4AC841A71EBFD
:10368000030C07D212198CF0004C43EB0C03001B07
:1036900061EB0C01DFF8A4E14FEA1154A4EB135CD9
:1036A0001EEA430F18BF9EEA445F00F0B08023EA91
:1036B0006E03524221EA0451C3EB6E0338BF5B1E16
:1036C000DCF1200E25D322FA0CFE10EB0E0043FA9B
:1036D0000CFE41EB0E01CCF1200E03FA0EFE10EBB6
:1036E0000E0051F10001CCF1200E29D412FA0EF295
:1036F00001EB0451BDE8104058BF7047401C1CBF8F
:10370000B2F1004F704700280CBF491C20F00100A7
:10371000704712EB020E43EB030218BF4FF0010E8D
:103720004EEA4202ACF1200CDCF11E0E54D943FAF1
:103730000CFE10EB0E0051F1FF31CCF11E0ED5D571
:103740000EF1010E12FA0EFE404141EB010101EBB8
:10375000445C5FEA5C5C10D910EBDE7001EB045155
:1037600038BFBEF1004FBDE8104018BF70470028B9
:103770000CBF491C20F00100704730D24FEAD42C16
:1037800011F5001124F400641BD0B1FA81F20B3A58
:10379000A41AA41ED2F12003914030FA03F3194376
:1037A000904001EBCC71002C01EB0451BDE81040BE
:1037B000A8BF704701F1C0414FF0000001F0004187
:1037C0007047B0FA80F310FA03F100D110BDE41A8B
:1037D000173C4805C90AE4E701EB045110BD491044
:1037E00001EB0451BDE810404FEA300002E04FF019
:1037F000000170474A0008BF0042F8D0B2F5001F30
:1038000028BF704701F000414FF0000070479EEA6A
:10381000445F07D011EA5E0FBDE8104004BF0021ED
:1038200000207047BDE8104070B5FFF7CBFE00BF29
:1038300040DFF63E83F00041104670470000E0FF95
:1038400043004FEAD30C4FEA3C0C43401FBF4007F4
:103850000CF1605113F0FE4F70471CF0006F03D164
:1038600000200CF0004170470CF0004343EA507018
:1038700010B540EACC0000F0A4F800BF00000092B0
:103880004FEA0001FFF7ECBE4FF000414FF000009F
:10389000A1F5002170470000B0FA80F310FA03F29E
:1038A000C3F19D030AD0D90501EB1220530638BF9E
:1038B000704700F1010008BF20F0010070470000D0
:1038C0004FF47F0C1CEAD0121EBF1CEAD11392EAFF
:1038D0000C0F93EA0C0F00F0478090EA010F48BFED
:1038E00042F480724FF0004C4CEA00204CEA012177
:1038F00002EB0302A0FB0113A2F50002002918BF8E
:1039000043F001035B0028BF4FEA330342EB22423E
:103910005FEA132C4CEBC2502EBFBCEB436FB2F5E9
:103920007C0F70474FEA036CBCF1004F08BF20F0DA
:103930000100B2F57C0F38BF70470BD582F0FF0253
:1039400012F5803FC8BF704700F1C040D8BF00F0FB
:103950000040704700F5000C5FEA4C0C48BF704710
:10396000B0F1C04000F073B890EA010F0CEAD11337
:1039700048BF42F48072624538BF634504D280EA92
:10398000010000F00040704710B500F01AF800BFC9
:103990008900013E00F007B800F009B85FEA410C69
:1039A0005FEA1C6C08D080EA010000F050B85FEAC2
:1039B000400C5FEA1C6CF6D14FF00040A0F580008F
:1039C00070470EF1020E2EF0030E5EF8044B2442F7
:1039D00004D44FEA4102B2F17F4F11D84FEA4003BD
:1039E000B3F17F4F0CD80ED14FEAD07CB2F17F4FAC
:1039F0000CEB4C0C0CF1020C08BF4CEBD17C04E03E
:103A00004FF0080C01E04FEAD17C0CEB4C0324FA98
:103A100003F404F00704B4F1040C06D20EEB840C9A
:103A2000BDE810404CF0010C6047DFE80CF00708DF
:103A300002024FF00040A0F5800010BD0846420091
:103A400018BFD2F1807288BF00F0004010BDFF2186
:103A500041EAD050C005704700000000000000009F
:103A6000002F000000000700070000147F147F14DF
:103A700000242A7F2A120062640813230036495565
:103A8000225000000503000000001C22410000003D
:103A900041221C000014083E08140008083E0808D3
:103AA000000000A06000000808080808000060602E
:103AB0000000002010080402003E5149453E00006D
:103AC000427F4000004261514946002141454B314F
:103AD000001814127F10002745454539003C4A491B
:103AE000493000017109050300364949493600068D
:103AF0004949291E000036360000000056360000F5
:103B0000000814224100001414141414000041226F
:103B1000140800020151090600324959513E007C47
:103B20001211127C007F49494936003E4141412231
:103B3000007F4141221C007F49494941007F09091A
:103B40000901003E4149497A007F0808087F0000CA
:103B5000417F4100002040413F01007F0814224185
:103B6000007F40404040007F020C027F007F04083D
:103B7000107F003E4141413E007F09090906003E99
:103B80004151215E007F09192946004649494931C2
:103B90000001017F0101003F4040403F001F2040E5
:103BA000201F003F4038403F0063140814630007A3
:103BB0000870080700615149454300007F414100FA
:103BC00000552A552A55000041417F00000402019A
:103BD0000204004040404040000001020400002078
:103BE00054545478007F48444438003844444420B6
:103BF00000384444487F00385454541800087E0963
:103C000001020018A4A4A47C007F0804047800002A
:103C1000447D4000004080847D00007F10284400E7
:103C20000000417F4000007C04180478007C0804F8
:103C3000047800384444443800FC24242418001834
:103C4000242418FC007C0804040800485454542020
:103C500000043F444020003C4040207C001C2040A9
:103C6000201C003C4030403C004428102844001CEC
:103C7000A0A0A07C004464544C44141414141414E4
:103C80000000000000000000000000000000000034
:103C9000000000F8000000000000003330000000C9
:103CA00000100C06100C06000000000000000000D0
:103CB00040C07840C0784000043F04043F04040042
:103CC000007088FC08300000001820FF211E000052
:103CD000F008F000E018000000211C031E211E0067
:103CE00000F00888700000001E21232419272110ED
:103CF00010160E0000000000000000000000000090
:103D0000000000E018040200000000071820400036
:103D100000020418E0000000004020180700000026
:103D2000404080F0804040000202010F010202008A
:103D3000000000F0000000000101011F010101006E
:103D4000000000000000000080B0700000000000D3
:103D5000000000000000000000010101010101015C
:103D600000000000000000000030300000000000F3
:103D700000000000806018040060180601000000C8
:103D800000E010080810E000000F102020100F00C5
:103D9000001010F8000000000020203F202000004C
:103DA00000700808088870000030282422213000A4
:103DB00000300888884830000018202020110E00AC
:103DC0000000C02010F8000000070424243F240055
:103DD00000F80888880808000019212020110E002A
:103DE00000E0108888180000000F112020110E003C
:103DF00000380808C83808000000003F0000000034
:103E00000070880808887000001C222121221C00F4
:103E100000E010080810E0000000312222110F001D
:103E2000000000C0C00000000000003030000000B2
:103E30000000008000000000000080600000000022
:103E4000000080402010080000010204081020003B
:103E50004040404040404000040404040404040086
:103E6000000810204080000000201008040201001B
:103E7000007048080808F00000000030360100001B
:103E8000C030C828E810E0000718272423140B00CE
:103E90000000C038E0000000203C23020227382048
:103EA00008F8888888700000203F202020110E002C
:103EB000C030080808083800071820202010080023
:103EC00008F808080810E000203F202020100F000C
:103ED00008F88888E8081000203F202023201800D8
:103EE00008F88888E8081000203F20000300000040
:103EF000C03008080838000007182020221E0200E1
:103F000008F808000008F808203F210101213F209F
:103F1000000808F8080800000020203F20200000CA
:103F200000000808F8080800C08080807F000000BA
:103F300008F888C028180800203F200126382000F3
:103F400008F8080000000000203F2020202030005A
:103F500008F8F800F8F80800203F003F003F200074
:103F600008F830C00008F808203F200007183F007C
:103F7000E01008080810E0000F10202020100F00AB
:103F800008F808080808F000203F2101010100009E
:103F9000E01008080810E0000F18242438504F00E3
:103FA00008F8888888887000203F2000030C3020A3
:103FB00000708808080838000038202121221C00E1
:103FC000180808F8080818000000203F200000002A
:103FD00008F808000008F808001F202020201F0013
:103FE0000878880000C83808000007380E01000073
:103FF000F80800F80008F800033C0700073C03003D
:10400000081868808068180820302C03032C3020A2
:104010000838C800C83808000000203F2000000011
:1040200010080808C8380800203826212020180069
:10403000000000FE020202000000007F404040003D
:10404000000C30C000000000000000010638C00075
:1040500000020202FE000000004040407F0000001D
:104060000000040202020400000000000000000042
:104070000000000000000000808080808080808040
:104080000002020400000000000000000000000028
:1040900000008080808000000019242222223F201E
:1040A00008F8008080000000003F112020110E0061
:1040B0000000008080800000000E112020201100F0
:1040C000000000808088F800000E112020103F20A2
:1040D0000000808080800000001F22222222130026
:1040E000008080F0888888180020203F2020000071
:1040F0000000808080808000006B94949493600026
:1041000008F8008080800000203F210000203F2030
:1041100000809898000000000020203F2020000030
:10412000000000809898000000C08080807F000020
:1041300008F8000080808000203F24022D302000FD
:10414000000808F8000000000020203F20200000A8
:104150008080808080808000203F20003F20003FC2
:104160008080008080800000203F210000203F20D0
:104170000000808080800000001F202020201F0081
:10418000808000808000000080FFA12020110E00B0
:104190000000008080808000000E112020A0FF80A1
:1041A000808080008080800020203F21200001004E
:1041B00000008080808080000033242424241900A3
:1041C000008080E0808000000000001F20200000B0
:1041D0008080000000808000001F202020103F20F1
:1041E000808080000080808000010E300806010081
:1041F00080800080008080800F300C030C300F0026
:1042000000808000808080000020312E0E31200050
:10421000808080000080808080818E701806010080
:1042200000808080808080000021302C222130009E
:1042300000000000807C020200000000003F4040BF
:1042400000000000FF00000000000000FF00000070
:104250000002027C800000000040403F000000009F
:10426000000601010202040400000000000000003A
:104270009042000800000020A00000002801000873
:1042800030430008A0000020E807000044010008B7
:1042900000000000000050000000000000000000CE
:1042A000000000000000000000000000000000000E
:1042B00000000000000000000000000000000000FE
:1042C00000000000000000000000000000000000EE
:1042D000000000000000000000000000FF07FF07D2
:1042E000FF07FF07000000000000000000000000C2
:1042F00000000000000000000000000000000000BE
:10430000000000000F000000000001020304010291
:1043100003040607080902040608000000A24A0474
:104320000000000000000000010203040607080965
:04000005080001915D
:00000001FF
