:020000040800F2
:100000003007002099010008B10E0008990D000882
:10001000150E000895090008912200080000000054
:100020000000000000000000000000009D16000815
:10003000AD0B00080000000005130008B117000810
:10004000B3010008B3010008B3010008B3010008C0
:10005000B3010008B3010008B3010008B3010008B0
:10006000B3010008B3010008B3010008B3010008A0
:10007000B3010008B3010008B3010008B301000890
:10008000B3010008B3010008B3010008B301000880
:10009000B3010008B3010008B3010008B301000870
:1000A000B3010008B3010008B3010008B301000860
:1000B0001518000879180008B3010008B3010008FA
:1000C000B3010008B3010008B3010008B301000840
:1000D000B3010008A11F0008B3010008B301000824
:1000E000B3010008B3010008B301000800F002F8F2
:1000F00000F042F80AA090E8000C82448344AAF180
:100100000107DA4501D100F037F8AFF2090EBAE87D
:100110000F0013F0010F18BFFB1A43F0010318473B
:10012000503A0000703A0000103A24BF78C878C1F5
:10013000FAD8520724BF30C830C144BF04680C60ED
:10014000704700000023002400250026103A28BF35
:1001500078C1FBD8520728BF30C148BF0B60704739
:10016000642900F0A580732900F06F81002070479A
:100170001FB51FBD10B510BD00F0C2F91146FFF745
:10018000F7FF02F0D1F900F0E0F903B4FFF7F2FF56
:1001900003BC02F0D7F8000009488047094800472F
:1001A000FEE7FEE7FEE7FEE7FEE7FEE7FEE7FEE727
:1001B000FEE7FEE704480549054A064B7047000084
:1001C000B5170008ED0000083001002030070020BE
:1001D0003003002030030020704700000FB40449B2
:1001E00010B503AA029800F035F910BC5DF814FBB5
:1001F000340000202DE9F0410E4604460020206224
:100200002046E168884730B3252805D0D4E901218C
:100210009047206A401CF2E7E168204600278847A3
:10022000050018D0A5F14100192802D820354FF457
:1002300000673246294620462760FFF791FF40B10C
:10024000012804D0F61D26F007060836D8E7361D2B
:10025000D6E72846DAE7206ABDE8F08170B50C469B
:100260000546012A05D02878800600D5EA690023D2
:1002700002E0012305E05B1C934202D2E05C00280F
:10028000F9D1A869E618C01AA861286A184428623A
:100290002846AFF3008004E0D5E9012114F8010BF2
:1002A0009047B442F8D32846AFF3008070BD0000F9
:1002B0002DE9F0410646002410687529314616A53F
:1002C00010D0AFF30080002802DA404213A507E007
:1002D00031688A0701D512A502E0490704D511A5A6
:1002E000012401E0AFF3008000210A2206F1240777
:1002F00009E0B0FBF2FCB0FBF2F302FB1C00303073
:1003000078541846491C0028F3D123462A46304623
:10031000BDE8F04100F02EB8000000002D00000004
:100320002B000000200000004FF000020429C0F064
:10033000128010F0030C00F0A180CCF1040CBCF191
:10034000020F18BF00F8012BA8BF20F8022BA1EB69
:100350000C0100F093B85FEAC17C24BF00F8012BC8
:1003600000F8012B48BF00F8012B70477047704719
:10037000704770472DE9F0470D469946924604466E
:1003800000F124080168880604D5E06921F0100115
:10039000216000E00120A84201DD471B00E00027AA
:1003A000A1697A1902EB0900081AA0612078C00639
:1003B00002D42046AFF30080002608E0D4E90121F2
:1003C0001AF806009047206A401C761C20624E45B1
:1003D000F4DB2078C0060AD52046AFF3008006E0A3
:1003E000D4E9012130209047206A401C2062381E49
:1003F000A7F10107F4DC07E0D4E9012118F80500B2
:100400009047206A401C2062281EA5F10105F3DCFC
:100410002046AFF300802078000602D50220BDE818
:10042000F0870120FBE710B5436913B1AFF30080FB
:1004300001E0FFF713FF012010BD127800F1240145
:100440000A7000224A700122EDE711684FF0FF3276
:10045000E9E70000074B70B50D467B4400F039F822
:100460000446284600F048F810B14FF0FF3070BD48
:10047000204670BD172000004FF0000200B5134663
:1004800094469646203922BFA0E80C50A0E80C50B4
:10049000B1F12001BFF4F7AF090728BFA0E80C5065
:1004A00048BF0CC05DF804EB890028BF40F8042B5E
:1004B00008BF704748BF20F8022B11F0804F18BFCB
:1004C00000F8012B7047000001694A1C026108789E
:1004D000704700B58FB0CDE9013100210591054984
:1004E0007944CDE9031011466846FFF783FE0FB04B
:1004F00000BD0000E5FFFFFF007B00F080007047BB
:10050000754600F02BF8AE4605006946534620F0CC
:100510000700854618B020B5FFF74CFEBDE8204027
:100520004FF000064FF000074FF000084FF0000BAF
:1005300021F00701AC46ACE8C009ACE8C009ACE862
:10054000C009ACE8C0098D46704710B50446AFF34A
:1005500000802046BDE81040FFF717BE00487047F6
:10056000D000002000B587B001214FF4017000F0E9
:1005700007FF4E20ADF8180000208DF81B0006A9DB
:10058000284800F014FB4FF4004000F0BDFE264860
:1005900000F0DCF80020019001208DF80800002018
:1005A0008DF809004FF4602003900020049004208F
:1005B0008DF8140001A91C4800F00AF90723012254
:1005C0001146194800F02CF907230222114616485B
:1005D00000F026F9072303221146134800F020F902
:1005E000072304220621104800F01AF901210E48C1
:1005F00000F0A1F801210C4800F092F80A4800F040
:100600006BF900BF084800F0D9F80028FAD1064875
:1006100000F072F900BF044800F0C6F80028FAD1D3
:1006200007B000BD000801400024014010B50121C1
:10063000304800F056F930483049097830F8310038
:100640002F49096808442E4908602B482B4909782E
:1006500000EBC10040882B4909680844294908601B
:1006600025482649097800EBC10080882649096899
:1006700008442549086020482049097800EBC1005A
:10068000C088224909680844204908601B4800784E
:10069000401C1A490870084600780A2829DB002007
:1006A0000870174800680A21B0FBF1F0184908806B
:1006B000002013490860144800680A21B0FBF1F0DB
:1006C000144908800020104908600E4800680A217B
:1006D000B0FBF1F01049088000200A4908600B487F
:1006E00000680A21B0FBF1F00C490880002007499E
:1006F000086010BD002401406C00002014000020A0
:10070000180000201C0000202000002024000020F1
:10071000280000202C0000202A0000202E000020AD
:1007200021B1826842F00102826003E0826822F017
:1007300001028260704721B1826842F48072826057
:1007400003E0826822F480728260704710B504462C
:100750001248844208D10121401500F021FE0021F9
:10076000601500F01DFE17E00D48844208D10121FC
:10077000001500F015FE0021201500F011FE0BE021
:100780000848844208D10121C80300F009FE002175
:100790004FF4004000F004FE10BD000000240140B2
:1007A00000280140003C0140014600208A6802F018
:1007B00004020AB1012000E0002070470146002039
:1007C0008A6802F008020AB1012000E000207047A8
:1007D00030B502460020002350680F4C20400D79B0
:1007E0000C6844EA05242043506090680B4C20407C
:1007F000D1E902542C434D7944EA450420439060EA
:10080000D06A20F470000C7C641EE4B2234340EAFA
:100810000350D06230BD0000FFFEF0FFFDF7F1FF96
:10082000F0B504460D4600200021092D11DDE068D9
:10083000A5F10A0606EB4607072606FA07F18843E4
:10084000A5F10A0606EB460603FA06F10843E06046
:100850000CE0206905EB4507072606FA07F18843F7
:1008600005EB450603FA06F108432061072A0FDA73
:10087000606B561E06EB86071F2606FA07F18843B3
:10088000561E06EB860605FA06F10843606322E071
:100890000D2A0FDA206BD61F06EB86071F2606FAF5
:1008A00007F18843D61F06EB860605FA06F10843D2
:1008B000206310E0E06AA2F10D0606EB86071F2612
:1008C00006FA07F18843A2F10D0606EB860605FA43
:1008D00006F10843E062F0BD816841F008018160E3
:1008E000704721B1826842F4A002826003E082680E
:1008F00022F4A00282607047816841F004018160A7
:100900007047000008B50121082000F039FD4FF4C0
:100910000040ADF8000010208DF8030001208DF894
:1009200002006946044800F042F94FF400410248D1
:1009300000F019FA08BD0000000C014010B50A488B
:10094000006850B108480068401E074908604FF42D
:100950000041064800F009FA04E04FF40041034862
:1009600000F001FA10BD000030000020000C014032
:10097000014908607047000030000020014908600C
:100980007047000088860D420149086070470000EA
:1009900000860D4200BFFEE710B50446204600F079
:1009A0003BFA204600F05EFA10BD704721B10268A4
:1009B00042F00102026004E002684FF6FE731A4042
:1009C0000260704701684FF6FE721140016000211D
:1009D000016041608160C1604B49884208D14A4949
:1009E0000839496841F00F01474A083A51608AE0E6
:1009F00045491431884208D143490839496841F0D2
:100A0000F001414A083A51607DE03F49283188426F
:100A100008D13D490839496841F470613A4A083AB9
:100A2000516070E038493C31884208D13649083974
:100A3000496841F47041344A083A516063E03249F0
:100A40005031884208D130490839496841F4702151
:100A50002D4A083A516056E02B496431884208D14A
:100A600029490839496841F47001274A083A516018
:100A700049E025497831884208D123490839496835
:100A800041F07061204A083A51603CE01F498842B9
:100A900006D1011F096841F00F01021F116032E009
:100AA0001A491431884208D11849091F096841F0D0
:100AB000F001164A121F116025E0144928318842BE
:100AC00008D11249091F096841F470610F4A121FC9
:100AD000116018E00D493C31884208D10B49091FCB
:100AE000096841F47041094A121F11600BE007497F
:100AF0005031884207D10549091F096841F4702126
:100B0000024A121F116070470800024008040240A8
:100B100010B50022026847F6F0739A430C6A8B689E
:100B200023430C6923434C6923438C692343CC69D9
:100B300023434C6A23438C6A23431A430260CB68E5
:100B400043600B6883604B68C36010BD00B58BB019
:100B50000121084600F0E4FB1148FFF733FF11487C
:100B6000009011480190002002902820039000205E
:100B7000049080200590400006908000079020207F
:100B800008900002099000200A9069460448FFF787
:100B9000BFFF01210248FFF709FF0BB000BD0000B5
:100BA000080002404C2401406C00002070472DE9F1
:100BB000F0410246002500260020002300240027E3
:100BC00091F803C00CF00F0591F803C00CF0100C65
:100BD000BCF1000F03D091F802C04CEA050591F872
:100BE00000C0BCF1000F31D0146800202BE04FF0A2
:100BF000010C0CFA00F3B1F800C00CEA03069E42A7
:100C000020D183004FF00F0C0CFA03F7BC4305FA18
:100C100003FC4CEA040491F803C0BCF1280F06D190
:100C20004FF0010C0CFA00FCC2F814C00AE091F875
:100C300003C0BCF1480F05D14FF0010C0CFA00FCC9
:100C4000C2F810C0401C0828D1D31460B1F800C00D
:100C5000BCF1FF0F34DD546800202EE000F1080CD9
:100C60004FF0010808FA0CF3B1F800C00CEA0306D3
:100C70009E4221D183004FF00F0C0CFA03F7BC43C6
:100C800005FA03FC4CEA040491F803C0BCF1280FF8
:100C900005D100F1080C08FA0CF8C2F8148091F89C
:100CA00003C0BCF1480F07D100F1080C4FF0010858
:100CB00008FA0CF8C2F81080401C0828CED3546003
:100CC000BDE8F081F0B50A4600230024002100258C
:100CD00000F00046B6F1004F02D11D4EF16901E06F
:100CE0001B4E7168C0F3034583B200F44016B6F59D
:100CF000401F08D121F07061154E766826F07066AD
:100D0000134F7E6012E000F48016B6F5801F06D106
:100D1000032606FA05F4A14341F0706106E0460D92
:100D2000360103FA06F6B14341F0706122B1460D77
:100D3000360103FA06F6314300F00046B6F1004FE3
:100D400002D1034EF16101E0014E7160F0BD00007F
:100D5000000001400246002093680B400BB10120C7
:100D600000E000207047416170470161704700005A
:100D700010B500BF07480068642100FB01F40807B4
:100D800000F03EFF044400204FF08041888420465C
:100D900010BD00003C00002000BFFEE708B50121A7
:100DA000082000F0EDFA4FF4E040ADF800004820D4
:100DB0008DF8030069460248FFF7F9FE08BD000000
:100DC000000C014008B50121112000F0D9FA0120E2
:100DD00000F092FA002000F05DFB0020FFF7D4FD48
:100DE0000020FFF7CBFD4FF40050ADF800000220CB
:100DF0008DF8020010208DF8030069460448FFF7C3
:100E0000D6FE4FF400510248FFF7ADFF08BD0000C9
:100E10000010014000BFFEE710B504460E48006810
:100E200020F00F000C4908600846006840F00100FF
:100E300008600020094908600748006820F0F000B9
:100E4000054908600846006840F0900008602146A7
:100E5000034801F050F810BD040C0140A08121426C
:100E60000008004010B504460E48006820F07040AD
:100E70000C4908600846006840F080500860002077
:100E8000094908600748006820F07060054908605B
:100E90000846006840F0106008602146034801F0F1
:100EA00028F810BD000C01409C8121420008004040
:100EB0007047000070B5002100230F22C47804B3EE
:100EC000154C246804F4E064C4F5E064210AC1F11F
:100ED0000403CA40447804FA03F18478144021439F
:100EE00009010E4C0678A155047804F01F05012471
:100EF000AC4005786D11AD0005F1E025C5F8004165
:100F000009E0047804F01F050124AC40044D067884
:100F1000761145F8264070BD0CED00E000E400E0DD
:100F200080E100E002490143024A1160704700007D
:100F30000000FA050CED00E070B5002419E004F1A2
:100F4000B001C8B2002100F0AFF90021084600F05E
:100F5000ABF90021102000F0A7F9002505E00121E0
:100F6000002000F0A1F9681CC5B2802DF7DB601CE1
:100F7000C4B2082CE3DB70BD00B587B0012141F29B
:100F80000C0000F0FDF90320ADF8040010208DF8EE
:100F9000070003208DF8060001A92748FFF707FE88
:100FA00003212548FFF7E1FE2020ADF804000320CF
:100FB0008DF8060018208DF8070001A91F48FFF7DB
:100FC000F6FD8020ADF8040001A91C48FFF7EFFDF5
:100FD0001020ADF804008DF8070001A91748FFF7AD
:100FE000E6FD10211548FFF7C0FE0020ADF808000F
:100FF0004FF48270ADF80A000020ADF80C0002201A
:10100000ADF80E000120ADF810004002ADF812005E
:101010000820ADF814000020ADF816000720ADF848
:10102000180002A9064800F01BFB0121044800F04B
:10103000FDFA07B000BD0000000C014000080140AF
:101040000030014010B5FFF797FF01214D48FFF731
:101050008CFE642001F0C6F901214A48FFF783FEA7
:10106000C82001F0BFF901214648FFF77EFEC820E5
:1010700001F0B8F90021AE2000F016F900212E2071
:1010800000F012F90021084600F00EF900211020AE
:1010900000F00AF90021402000F006F90021B020FC
:1010A00000F002F90021812000F0FEF80021FF206D
:1010B00000F0FAF80021A12000F0F6F80021A620A7
:1010C00000F0F2F80021A82000F0EEF800213F2007
:1010D00000F0EAF80021C82000F0E6F80021D32053
:1010E00000F0E2F80021084600F0DEF80021D520EB
:1010F00000F0DAF80021802000F0D6F80021D82096
:1011000000F0D2F80021052000F0CEF80021D62012
:1011100000F0CAF80021084600F0C6F80021D920E6
:1011200000F0C2F80021F12000F0BEF80021DA2022
:1011300000F0BAF80021122000F0B6F80021DB2000
:1011400000F0B2F80021302000F0AEF800218D2030
:1011500000F0AAF80021142000F0A6F80021A42035
:1011600000F0A2F80021A62000F09EF80021AF2098
:1011700000F09AF8FFF7E0FE0021084600F004F8BE
:1011800010BD0000000C014070B504460D4605F18D
:10119000B001C8B2002100F087F804F00F00002170
:1011A00000F082F8102141EA1410002100F07CF8D0
:1011B00070BD00002DE9F04107460E46904600251F
:1011C0000024A8F12000C5B27F2F02DD0027B01C4B
:1011D000C6B231463846FFF7D7FF002408E004EBDB
:1011E00005110F4A505C012100F05EF8601CC4B28A
:1011F000082CF4DB701CC1B23846FFF7C5FF002491
:1012000009E004EB05110831054A505C012100F0AA
:101210004BF8601CC4B2082CF3DBBDE8F081000081
:10122000803500082DE9FF5F074691461D460E9E5A
:101230004FF0000A002433E0281B401EC1B20A20F0
:1012400001F0C6FAB9FBF0F00A21B0FBF1F201FBA4
:101250001208BAF1000F13D1681EA04210DDB8F1D8
:10126000000F0BD1B34606EBDB71491001FB047193
:10127000C8B220220199FFF79DFF0FE04FF0010A4D
:10128000B34606EBDB71491001FB0471C8B208F1EB
:101290003001CAB20199FFF78DFF00BF601CC4B2D4
:1012A000AC42C9DBBDE8FF9F70B505460C4624B1D2
:1012B00002210C48FFF759FD03E002210948FFF71E
:1012C00052FD10210848FFF74EFD284600F092F924
:1012D00010210548FFF749FD02210248FFF745FDAF
:1012E00070BD0000000C01400008014000200149D1
:1012F000086070473C000020014908627047000008
:1013000000000E427047000001460020034A50686A
:1013100020F4404008435060704700000010024035
:1013200029B1064A52690243044B5A6104E0034A58
:1013300052698243014B5A6170470000001002401D
:1013400029B1064AD2690243044BDA6104E0034A38
:10135000D2698243014BDA617047000000100240FD
:1013600029B1064A12690243044B1A6104E0034A98
:1013700012698243014B1A6170470000001002405D
:1013800029B1064A92690243044B9A6104E0034A78
:1013900092698243014B9A6170470000001002403D
:1013A00029B1064AD2680243044BDA6004E0034ADA
:1013B000D2688243014BDA6070470000001002409F
:1013C00030B500210022002400232D4D6D6805F06A
:1013D0000C0121B1042905D0082923D105E0294DAC
:1013E000056022E0274D05601FE0254D6D6805F47E
:1013F0007012234D6D6805F48034022505EB92428E
:101400001CB9214D554305600BE01D4D6D6805F479
:1014100000351DB11C4D5543056002E0194D554383
:10142000056002E0174D056000BF00BF144D6D68F8
:1014300005F0F0010909154D6B5C0568DD4045605C
:101440000F4D6D6805F4E061090A104D6B5C45684D
:10145000DD4085600A4D6D6805F46051C90A0B4D89
:101460006B5C4568DD40C560054D6D6805F4404125
:10147000890B074D6B5CC568B5FBF3F5056130BDA5
:101480000010024000127A0000093D0042000020D6
:101490005200002000210B4A11700A4A203A82F8BB
:1014A0002010012802D0042808D103E00121054AB8
:1014B000117004E00521034A117000E000BF00BF75
:1014C000704700002010024010B52548006828B180
:1014D000002024490870244908700EE02148007853
:1014E000401C20490870084600786E2805DD012060
:1014F0001D4908700A20FFF73BFA1948001D0068D3
:1015000028B1002019490870174948700EE01748A3
:101510000078401C15490870084600786E2805DDE3
:101520000120114948700A20FFF722FA0C480830C0
:10153000006828B100200E4908700B4988700EE041
:101540000B480078401C0A490870084600786E284D
:1015500005DD0120044988700A20FFF709FA10BD53
:10156000308121420C0000200F0000200D000020DF
:101570000E00002008B501210A48FFF7A3FB012156
:101580000520FFF7FDFE4FF40040ADF800001020ED
:101590008DF8030003208DF8020069460248FFF72A
:1015A00006FB08BD00023000000801402DE9F05F95
:1015B0008246504601F0F0FD834601F0C1FD8046B1
:1015C000084A094B01F0D4FB06460022074B01F004
:1015D0005BF9044601F088FBC0B205490880BDE80C
:1015E000F09F00009A9999999999B93F0000144089
:1015F0004000002010B5044600BF02210A4800F058
:1016000021F80028F9D02146074800F027F800BF4C
:101610000121054800F016F80028F9D0024800F032
:101620001AF8C0B210BD00000030014021B102889C
:1016300042F04002028004E002884FF6BF731A4075
:10164000028070470246002013890B400BB1012035
:1016500000E000207047014688897047818170470B
:1016600010B50022028802F441520B884C882343B3
:101670008C882343CC8823430C8923434C89234300
:101680008C892343CC8923431A430280838B4FF2F6
:10169000FF74234083830B8A038210BD704710B50B
:1016A00000F002F810BD00000CB500200190009081
:1016B0003348006840F480303149086000BF30484A
:1016C000006800F4003000900198401C01900098E0
:1016D00018B90198B0F5A06FF1D12948006800F45D
:1016E000003010B10120009001E00020009000982F
:1016F000012843D12348006840F0100021490860C8
:101700000846006820F0030008600846006840F0C2
:10171000020008601A484068194948600846406855
:1017200048600846406840F4806048600846406869
:1017300020F47C1048600846406840F4E810486097
:101740000846006840F08070086000BF0C480068E0
:1017500000F000700028F9D00948406820F003002C
:10176000074948600846406840F00200486000BFF2
:101770000348406800F00C000828F9D10CBD0000B7
:101780000010024000200240042808D14FF0E02160
:10179000096941F004014FF0E022116107E04FF0C8
:1017A000E021096921F004014FF0E0221161704746
:1017B0007047000010B51348006840F0010011495F
:1017C000086008464068104908400E4948600846CD
:1017D00000680E4908400B4908600846006820F47C
:1017E000802008600846406820F4FE0048604FF4FE
:1017F0001F008860FFF753FF4FF000600449086046
:1018000010BD0000001002400000FFF8FFFFF6FED0
:1018100008ED00E010B50121880700F0F4F908B3E5
:101820000121880700F0E9F80F480068401C0E49C4
:1018300008600E480078401CC0B20C4908700C4982
:101840000988884203DA01200A4908600AE007484B
:101850000078C72803DA00200649086002E000206B
:101860000249087010BD00003C0000205600002016
:1018700040000020BC01214210B50121134800F0B6
:10188000C2F908B30121114800F0B7F8012010494E
:10189000087010480088401C0E49088008460088DF
:1018A000642190FBF1F201FB120010B901200A49FA
:1018B000087008480088B0F5FA7F05DB002005496C
:1018C000088001200549087010BD00000004004098
:1018D000030000200000002004000020050000207C
:1018E0001FB501210220FFF72BFD40F2E730ADF8D4
:1018F00008004720ADF804000020ADF80A00ADF85C
:10190000060001A90C4800F0F9FA012211460A4824
:1019100000F08AF91D208DF8000001208DF80100EB
:101920008DF802008DF803006846FFF7C3FA012125
:10193000014800F065F81FBD0004004000B589B003
:1019400001210420FFF7FCFC01210820FFF718FD0E
:101950004FF47070ADF8200018208DF8230001209E
:101960008DF8220008A92148FFF721F96320ADF87E
:10197000180040F2CF20ADF814000020ADF81A0096
:10198000ADF8160005A91A4800F0B8FA6020ADF8C5
:1019900004000120ADF806000020ADF80C0001A9FC
:1019A000134800F04BF901A9114800F09DF901A975
:1019B0000F4800F0F9F901A90D4800F04FFA08218D
:1019C0000B4800F087F90821094800F0DFF90821E9
:1019D000074800F039FA0821054800F07DFA012196
:1019E000034800F00DF809B000BD0000000C0140F4
:1019F00000080040CA4302827047CA43028270470F
:101A000021B1028842F00102028004E002884FF610
:101A1000FE731A400280704710B50446684884423D
:101A200008D10121C014FFF7BBFC0021E014FFF72F
:101A3000B7FCC4E0B4F1804F08D101210846FFF79C
:101A40008FFC00210120FFF78BFCB8E05D48844249
:101A500008D101210220FFF783FC00210220FFF7BB
:101A60007FFCACE05848844208D101210420FFF7F4
:101A700077FC00210420FFF773FCA0E05348844268
:101A800008D101210820FFF76BFC00210820FFF797
:101A900067FC94E04E48844208D101211020FFF7F2
:101AA0005FFC00211020FFF75BFC88E0494884427E
:101AB00008D101212020FFF753FC00212020FFF74F
:101AC0004FFC7CE04448844208D101214014FFF7D8
:101AD00067FC00216014FFF763FC70E03F4884421C
:101AE00009D10121C804FFF75BFC00214FF400205D
:101AF000FFF756FC63E03A48844209D1012108050A
:101B0000FFF74EFC00214FF48010FFF749FC56E030
:101B10003448844209D101214805FFF741FC0021E6
:101B20004FF40010FFF73CFC49E02F48844208D1F5
:101B300001214020FFF714FC00214020FFF710FC9A
:101B40003DE02A48844208D101218020FFF708FCAB
:101B500000218020FFF704FC31E02548844208D1B1
:101B600001218015FFF7FCFB0021A015FFF7F8FB12
:101B700025E02048844209D101210804FFF710FC28
:101B800000214FF48030FFF70BFC18E01A48844224
:101B900009D101214804FFF703FC00214FF4003074
:101BA000FFF7FEFB0BE01548844208D101218804B1
:101BB000FFF7F6FB00214FF48020FFF7F1FB10BD8B
:101BC000002C01400004004000080040000C0040D0
:101BD000001000400014004000340140004C01405F
:101BE000005001400054014000180040001C00401B
:101BF00000200040004001400044014000480140F6
:101C00000146888C704730B502460020002300242E
:101C1000158A05EA0103958905EA010413B10CB19F
:101C2000012000E0002030BD1AB183890B4383817D
:101C300002E083898B4383817047000070B50024E4
:101C400000220023058C4FF6FE7635400584028C79
:101C50008388048B4FF68F752C40B51E2C400D8861
:101C60002C43751E2A400D892A434D882A43144D62
:101C7000A8420BD0134DA84208D0134DA84205D05E
:101C8000124DA84202D0124DA84213D14FF6F7755B
:101C90002A404D892A434FF6FB752A408D882A43F6
:101CA0004FF6FF652B404FF6FF552B408D892B4398
:101CB000CD892B4383800483CD888586028470BDC3
:101CC000002C01400034014000400140004401402C
:101CD000004801400A460021018B4FF6F773194076
:101CE000114301837047000070B5002400220023D7
:101CF000058C4FF6EF7635400584028C8388048B83
:101D000048F6FF752C404FF6FF452C400D884FF6E6
:101D1000FF7606EA05252C434FF6DF752A400D892C
:101D200006EA05152A434D8806EA05152A43154D8E
:101D3000A84202D0144DA8421DD14FF67F752A400B
:101D40004D894FF6FF7606EA05152A434FF6BF7513
:101D50002A408D8806EA05152A434FF6FF352B40A9
:101D60004FF2FF752B408D8906EA85052B43CD89FF
:101D700006EA85052B4383800483CD88058702848A
:101D800070BD0000002C0140003401400A460021D3
:101D9000018B4FF2FF7319404FF6FF7303EA0223E2
:101DA000194301837047000070B50024002200230E
:101DB000058C4FF6FF6635400584028C8388848B42
:101DC0004FF68F752C404FF6FC752C400D882C4338
:101DD0004FF6FF552A400D894FF6FF7606EA052596
:101DE0002A434D8806EA05252A43154DA84202D00C
:101DF000144DA8421DD14FF2FF752A404D894FF670
:101E0000FF7606EA05252A434FF6FF352A408D88DE
:101E100006EA05252A434EF6FF752B404DF6FF7561
:101E20002B408D8906EA05152B43CD8906EA051559
:101E30002B4383808483CD888587028470BD000016
:101E4000002C0140003401400A460021818B4FF6EE
:101E5000F7731940114381837047000070B5002269
:101E600000230024058C4EF6FF7635400584038C54
:101E70008488828B48F6FF752A404FF6FF452A403A
:101E80000D884FF6FF7606EA05252A434DF6FF75C5
:101E90002B400D8906EA05352B434D8806EA0535AA
:101EA0002B430B4DA84202D00A4DA84208D14BF655
:101EB000FF752C408D894FF6FF7606EA85152C4379
:101EC00084808283CD88A0F84050038470BD0000D8
:101ED000002C0140003401400A460021818B4FF262
:101EE000FF7319404FF6FF7303EA022319438183FE
:101EF000704781867047A0F8401070470022028822
:101F00001D4B98420ED01D4B98420BD0B0F1804F24
:101F100008D01B4B984205D01A4B984202D01A4B5E
:101F2000984204D14FF68F731A404B881A43174BCF
:101F3000984207D0164B984204D04FF6FF431A4000
:101F4000CB881A4302808B8883850B8803850A4BD4
:101F500098420BD0094B984208D00E4B984205D0BE
:101F60000D4B984202D00D4B984201D10B7A03865B
:101F70000123838270470000002C0140003401409F
:101F80000004004000080040000C00400010004029
:101F9000001400400040014000440140004801405E
:101FA00010B540F225511F4800F04EF8B0B31D485F
:101FB00000F006F9C4B21C48008800F4004068BB79
:101FC000242C0AD11848008840F480401649088023
:101FD0000846008820F0010008801348008800F4BB
:101FE000804090B110480088C0F30D000F490C5498
:101FF0000D480088401C0C49088008460088C0F342
:102000000D00132801DD00200880232C07D106488D
:10201000008840F400400449088010BDFFE700BF7D
:10202000FBE700000038014038000020BC00002021
:1020300021B1828942F40052828104E082894DF606
:10204000FF731A408281704770B502460024002356
:102050000025002040F66A16B14200D100BFC1F34E
:10206000421501F01F03012606FA03F3012D02D1E8
:102070009689334006E0022D02D1168A334001E0F2
:10208000968A33400C12012606FA04F4168834406E
:1020900013B10CB1012000E0002070BDF0B5034683
:1020A000002400260025002040F66A17B94200D11E
:1020B00000BF1846C1F3421401F01F06012707FABA
:1020C00006F5012C01D10C3004E0022C01D11030B6
:1020D00000E014301AB107682F43076002E0076878
:1020E000AF430760F0BD00002DE9F04786B005461C
:1020F0000E460024A24600BFA1460027B08900B1C9
:1021000000BF2F462C8A4CF6FF700440F088044331
:102110002C82AC894EF6F3100440B0883189084314
:10212000718908430443AC81AC8A4FF6FF400440F8
:10213000B0890443AC8201A8FFF742F91F488742E7
:1021400002D1DDF810A001E0DDF80CA0A88900F4B0
:10215000004040B10AEBCA0000EB0A1031684900A8
:10216000B0FBF1F807E00AEBCA0000EB0A10316897
:102170008900B0FBF1F86420B8FBF0F004012009FD
:10218000642101FB1089A88900F4004040B132208D
:1021900000EBC900B0FBF1F000F00700044308E0D9
:1021A000322000EB09106421B0FBF1F000F00F00C9
:1021B00004432C8106B0BDE8F087000000380140E0
:1021C00001468888C0F308007047000000B585B05C
:1021D00001210420FFF7D4F84FF40060ADF810009F
:1021E00003208DF8120010208DF8130004A9274851
:1021F000FEF7DDFC4FF400612448FEF7B4FD4FF418
:102200008070ADF8100004208DF8130004A91F4859
:10221000FEF7CDFC4FF480711C48FEF7A4FD0121B0
:102220000846FFF78DF84FF08040FFF7F5FB63207D
:10223000ADF808004720ADF804000020ADF80A0012
:10224000ADF8060001A94FF08040FFF757FE0121CD
:102250008807FFF7CFFB012211469007FFF7E4FC48
:102260001C208DF8000001208DF8010000208DF861
:10227000020001208DF803006846FEF71BFE0121D5
:102280008807FFF7BDFB05B000BD00000008014056
:1022900000BFFEE708B501210846FFF771F80121EC
:1022A0000C48FEF70FFD01210820FFF769F83020E8
:1022B000ADF8000010208DF8030001208DF8020019
:1022C00069460548FEF773FC30210348FEF74DFDD3
:1022D00008BD000000013000000C014010B53021A5
:1022E0000148FEF742FD10BD000C014010B5044648
:1022F000012C06D0022C0DD0032C14D0042C1CD1A0
:1023000016E010210E48FEF72EFD20210C48FEF7A6
:102310002CFD13E010210A48FEF727FD2021084874
:10232000FEF721FD0AE030210548FEF71CFD05E01F
:1023300030210348FEF719FD00E000BF00BF10BDCB
:10234000000C0140014600BF7047000010B56FF05F
:102350000400FFF719FA0A480068C0080949B0FBF1
:10236000F1F0094908800846008800EB4001C1EB04
:10237000C0104FF6FF7101EAC0000449088010BD8B
:102380005800002040420F00080000200A000020F2
:10239000014609B9002070471148008848434FF0B2
:1023A000E0235861002098611846006940F0010060
:1023B000186100BF4FF0E020026902F0010018B17F
:1023C00002F480300028F5D04FF0E020006920F0C2
:1023D00001004FF0E02318610020986100BFDAE7A8
:1023E0000A000020014606E042F6E06200E0521ECC
:1023F000002AFCD1491E0029F6D1704710B50146CC
:10240000042309B9002010BD012906D100E000BF56
:10241000581EC0B2031EFAD1F5E7012903D9B1F560
:102420007A7F00D2491E1248008848434FF0E024CA
:1024300060610020A0612046006940F00100206139
:1024400000BF4FF0E020026902F0010018B102F471
:1024500080300028F5D04FF0E020006920F0010026
:102460004FF0E02420610020A06100BFCBE7000016
:102470000800002000BF054A128802F04002002A2E
:10248000F9D0C2B2014B1B1D1A80704700380140C1
:102490002DE9F05F0024A1464FF400611E48FEF7CD
:1024A00064FC1920FFF7AAFF4FF400611A48FEF7F9
:1024B0005AFC00BF4FF480711748FEF74BFC002810
:1024C000F8D0FEF713FF00BF4FF480711248FEF7FB
:1024D00041FC0128F8D0FEF768FAFEF749FC0446F3
:1024E0000E48844203D94FF0FF30BDE8F09F2046EC
:1024F00000F052FE83460A4900F062FE824600F078
:102500001FFE07460022074B00F066FA054600F062
:10251000BBFB81464846E8E700080140D0010100C6
:102520000000884100408F4008B54FF4A060FEF7DE
:10253000F9FCFFF70BFFFFF7ADFE0120FFF7D6FE1A
:102540004FF4165000F050F9FEF73CFCFFF7C8F9C5
:10255000FFF7F4F9FEF722FCFEF7F8FAFEF702F8AF
:10256000FEF7D0F9FFF732FEFFF704F8FEF76AFD39
:10257000FEF7E2FC4FF47A70FFF70AFF4FF47A702F
:10258000FFF706FF4FF47A70FFF702FF4FF47A70FF
:10259000FFF7FEFEFFF7A2FED3E06A4800780128AD
:1025A00008D1002067490870FEF78EFFFEF73EF85D
:1025B000FEF7C4F964480078012822D1002062495E
:1025C00008706248006808B9012000E000205F49F7
:1025D00008605F480078B42805DA5D480078401D3F
:1025E0005B49087002E0B4205949087059480288D4
:1025F0005748017858A0FDF7F1FD55480078FEF7DF
:10260000D5FF51488078012808D100204E498870B4
:102610003220FEF7C1F90220FFF768FE4A484078F1
:1026200001281AD1002048494870494800780528F7
:1026300005DD47480078401F4549087002E0052045
:1026400043490870434802884148017842A0FDF799
:10265000C5FD3F480078FEF7A9FF4748008800F411
:10266000004050B1454946A0FDF7B8FD142143484C
:10267000FDF75AFE002040490880474800780128AD
:102680004FD100204449087010200090434804882E
:10269000E01704EB1070C0F3071203230021084673
:1026A000FEF7C0FD102000903D480488E01704EBC1
:1026B0001070C0F30712032302210020FEF7B2FDC1
:1026C0001020009037480488E01704EB1070C0F326
:1026D0000712032304210020FEF7A4FD32480088DE
:1026E0006421484340F6FF7190FBF1FB584600F02F
:1026F00028FB80464FF066322C4B00F039FB064633
:1027000000224FF0804300F033FB044600F0ECFA67
:102710008246102004235246062100900020FEF736
:1027200081FD2348007801280BD100240020204996
:102730000870FFF7ADFE044621461EA0FDF74EFDD2
:1027400000BF2AE7030000200F000020B40122424E
:102750000700002040000020B6E6BBFABDC7B6C89F
:10276000202564202D2D20B8DFB5E7C6BDCAB1BC39
:10277000E42025640D0A000038000020BC00002081
:10278000CAD5B5BDB5C4D3D0D0A7C3FCC1EECEAABF
:10279000A3BA25730D0A00000400002028000020C1
:1027A0002A0000202C0000202E00002066660A402F
:1027B00005000020B3ACC9F9B2A8CCBDB2E2BEE0BE
:1027C000C0EBCEAAA3BA256420636D0D0A000000F9
:1027D00010B50246012000E050430B1EA1F1010498
:1027E000E1B2F9D110BD000010B586B00446012158
:1027F00044F20400FEF7C4FD4FF40070ADF814007D
:1028000003208DF8160018208DF8170005A91C4824
:10281000FEF7CDF94FF48060ADF8140004208DF878
:10282000170005A91648FEF7C2F925208DF800000B
:1028300003208DF801008DF8020001208DF80300BF
:102840006846FEF737FB01940020ADF80800ADF8AC
:102850000A00ADF80C00ADF810000C20ADF80E0029
:1028600001A90848FFF740FC012240F22551054824
:10287000FFF714FC01210348FFF7DAFB06B010BD97
:10288000000801400038014010B591EA030F48BF2D
:1028900083F0004300F17283841A71EB030C05D2BC
:1028A000121943EB0C03001B61EB0C01DFF824E170
:1028B0004FEA1154A4EB135C1EEA430F18BF9EEAC3
:1028C000445F73D023EA0E03DCF1200E21EA0451A9
:1028D00043F4801332D322FA0CFE10EB0E0023FADD
:1028E0000CFE41EB0E01CCF1200E03FA0EFE10EBB4
:1028F0000E0051F10001B1F5801FCCF1200E32D253
:1029000001EB045112FA0EF2BDE8104058BF7047B7
:10291000401C38BF5FEA420218BF7047002814BF4E
:1029200020F0010041F100014FEA410313F5001FBF
:1029300038BF7047A1F1C04100F012BB012A43EB40
:102940000302ACF1200CDCF11F0E32BF4FF0000E81
:1029500023FA0CF310EB030041EB0451B4EB115FCD
:10296000D0D0A1EB045101F5801149085FEA300095
:1029700001EB04510ED350F1000038BF12FA0EFEE5
:1029800008D1BDE81040C9E7401C38BF5FEA4202E9
:10299000CAD1C3E7BDE810404FEA410313F5001F59
:1029A00038BF7047A1F1C04100F0DABA9EEA445F37
:1029B00008D011EA5E0FBDE8104004BF01F00041ED
:1029C00000207047BDE8104070B500F07BFA00BFF2
:1029D00064FBBE3E0000E0FF2DE9C04130B4DFF8EB
:1029E000A0C23CEA111418BF3CEA131400F0EC80BA
:1029F00081EA03051CEA111444EAD57418BF1CEAE5
:102A0000131500F0C780A4EB05044FF0004545EA1C
:102A1000C12145EAC32341EA505143EA525304F12C
:102A20007F74994204F500344FEAC0204FEAC22275
:102A300008BF904200F09C804FEA13650FF24016E9
:102A4000765D4FEA134506FB05F7C7F1807706FB75
:102A500007F74FEAD737A7FB03687642C8F58038F7
:102A6000A7FB06CE38BFA8F1010807FB08E64FF028
:102A7000000EA6FB028CE6FB03CEDCF1000CCEF1CF
:102A8000004E38BFAEF1010EA6FB0C584FF0000708
:102A90004FF00005E6FB0E87A1FB08C6A0FB07CEA2
:102AA00016EB0E0645F10005E1FB076515F1E04E5A
:102AB0007EBFA4F580345FEA46066D4116F18007BB
:102AC00045F100054FEA17274FEA066647EA056712
:102AD000A6F1DE46B6F1805F4FEA15251FD93846CC
:102AE00024F0010C05EBC471BCF1FE6F01EB0C117D
:102AF00002D8F0BCBDE8008124425CBF01F5801E15
:102B00009EEAC47F02D4F0BCBDE80081244238D4E0
:102B1000F0BCA1F1C041BDE8004100F021BA4FEA8C
:102B2000D22242EA43524FEAD323A7FB02864FEA5E
:102B3000D02040EA415007FB03661EEA0E0F4FEA21
:102B4000D12105FB026658BFA6EB0056B6EB005636
:102B50004FEA520E4EEAC37E18EB0E0E56EB530EA2
:102B6000BDD518EB02085E417F1C55F10005B6E7A4
:102B70004FF480154FF000074FF000064FF00008AB
:102B8000ADE7F0BC4FF0000001F1C04101F00041A1
:102B9000BDE8008111EA0C1F0CEA131500D00CE00F
:102BA00013EA0C1F00F025804FF00000F0BC81EA12
:102BB000030101F00041BDE80081F0BCBDE8004127
:102BC00081EA030100F0CCB9F0BCBDE8004170B56A
:102BD00000F078F9097EFC3E00F007B881EA0301B5
:102BE0004FF0000001F00041704781EA030100F05E
:102BF000B7B9F0BCBDE800414FF000002149704773
:102C0000FFFDFBF9F7F5F4F2F0EEEDEBE9E8E6E4B1
:102C1000E3E1E0DEDDDBDAD8D7D5D4D3D1D0CFCD38
:102C2000CCCBCAC8C7C6C5C4C2C1C0BFBEBDBCBB71
:102C3000BAB9B8B7B6B5B4B3B2B1B0AFAEADACAB6C
:102C4000AAA9A8A8A7A6A5A4A3A3A2A1A09F9F9E46
:102C50009D9C9C9B9A9999989797969595949393F8
:102C6000929191908F8F8E8E8D8C8C8B8B8A89898F
:102C70008888878786858584848383828281818012
:102C80000000FF070000F87F4FEA41034FEA53536B
:102C9000A3F58063D3F11E03C8BFD3F1210C0CDD73
:102CA0004FF0004242EAC12242EA505232FA03FC9B
:102CB0008CEAE17CACEBE1707047102BC4BF0020C4
:102CC000704703F5787CBCF1FF3F04D06FF0004201
:102CD00082EA2100704770B500F0F4F84992248030
:102CE00000207047F2E700004FEA1153A3F580631C
:102CF000D3F11E03A8BFD3F1200C08DB4FF0004234
:102D000042EAC12252EA505232FA03F070470942B5
:102D10000BD4102BC4BF0020704703F5787CBCF1A6
:102D2000FF3F05D04FF0FF3070474FF00000704775
:102D300070B500F0C7F800BF4992248000207047AA
:102D4000F0E710F0004248BF4042B0FA80F310FABA
:102D500003F10AD0C3F11D0303F580634FEA41502C
:102D600002EB035202EBD12170474FF00000704795
:102D7000DFF848C170B51CEA111E1EBF1CEA13150E
:102D80009EEA0C0F95EA0C0F00F06F8081EA0304B5
:102D900023EA4C134EEAD47E21EA4C1141F480110F
:102DA00043F48013AE44A1FB024CA0FB0365AEF1DB
:102DB0007F7E361955EB0C05A1FB034C4CF100034B
:102DC000A0FB021C16EB0C06654153F100030942FF
:102DD00018BF46F0010613F4007F0BD14FEA033110
:102DE0004FEA0530340341EA155140EA16506FF0BE
:102DF00003020AE04FEAC3214FEAC520F40241EA88
:102E0000555140EA56506FF0020202EB2E4201EBA0
:102E1000025585EACE710AD05FEA440C18BF24F04F
:102E2000004450F1000041F1000120EAD47040F26A
:102E3000FE7C624500D270BDA84214BF4FF08044B2
:102E40004FF04044002E08BF0024BEF1806FA8BFA1
:102E5000A1F1C041BDE8704080F282804FF00000D7
:102E600001F1C04101F0004170479EEA0C0F0CEAED
:102E7000131518BF95EA0C0F06D04FF0000081EA39
:102E8000030E0EF0004170BD00F01CF88900013EF9
:102E900000F007B800F009B84FEA430C5FEA5C5C49
:102EA00008D081EA030100F05BB84FEA410C5FEA09
:102EB0005C5CF6D14FF00000014970470000FF074D
:102EC0000000F87F0EF1020E2EF0030E5EF8046B88
:102ED000364205D4012A43EB030515F5001F12D82D
:102EE000012841EB010C1CF5001F0CD80ED14FEA54
:102EF000D17C15F5001F0CEB4C0C0CF1020C08BF3B
:102F00004CEBD37C04E04FF0080C01E04FEAD37C9B
:102F10000CEB4C0526FA05F606F00706B6F1040C94
:102F200006D20EEB860CBDE870404CF0010C6047F9
:102F3000DFE80CF0090B02024FF000414FF00000F7
:102F4000A1F5002170BD19461046012851EB01047E
:102F500018BFD4F5001484BF002001F0004170BDFB
:102F60000808A0F500114FEA3101704710B591EA49
:102F7000030F48BF83F000433FF58EAC841A71EB1A
:102F8000030C07D212198CF0004C43EB0C03001B0E
:102F900061EB0C01DFF8A4E14FEA1154A4EB135CE0
:102FA0001EEA430F18BF9EEA445F00F0B08023EA98
:102FB0006E03524221EA0451C3EB6E0338BF5B1E1D
:102FC000DCF1200E25D322FA0CFE10EB0E0043FAA2
:102FD0000CFE41EB0E01CCF1200E03FA0EFE10EBBD
:102FE0000E0051F10001CCF1200E29D412FA0EF29C
:102FF00001EB0451BDE8104058BF7047401C1CBF96
:10300000B2F1004F704700280CBF491C20F00100AE
:10301000704712EB020E43EB030218BF4FF0010E94
:103020004EEA4202ACF1200CDCF11E0E54D943FAF8
:103030000CFE10EB0E0051F1FF31CCF11E0ED5D578
:103040000EF1010E12FA0EFE404141EB010101EBBF
:10305000445C5FEA5C5C10D910EBDE7001EB04515C
:1030600038BFBEF1004FBDE8104018BF70470028C0
:103070000CBF491C20F00100704730D24FEAD42C1D
:1030800011F5001124F400641BD0B1FA81F20B3A5F
:10309000A41AA41ED2F12003914030FA03F319437D
:1030A000904001EBCC71002C01EB0451BDE81040C5
:1030B000A8BF704701F1C0414FF0000001F000418E
:1030C0007047B0FA80F310FA03F100D110BDE41A92
:1030D000173C4805C90AE4E701EB045110BD49104B
:1030E00001EB0451BDE810404FEA300002E04FF020
:1030F000000170474A0008BF0042F8D0B2F5001F37
:1031000028BF704701F000414FF0000070479EEA71
:10311000445F07D011EA5E0FBDE8104004BF0021F4
:1031200000207047BDE8104070B5FFF7CBFE00BF30
:1031300040DFF63E83F00041104670470000E0FF9C
:1031400043004FEAD30C4FEA3C0C43401FBF4007FB
:103150000CF1605113F0FE4F70471CF0006F03D16B
:1031600000200CF0004170470CF0004343EA50701F
:1031700010B540EACC0000F0A4F800BF00000092B7
:103180004FEA0001FFF7ECBE4FF000414FF00000A6
:10319000A1F5002170470000B0FA80F310FA03F2A5
:1031A000C3F19D030AD0D90501EB1220530638BFA5
:1031B000704700F1010008BF20F0010070470000D7
:1031C0004FF47F0C1CEAD0121EBF1CEAD11392EA06
:1031D0000C0F93EA0C0F00F0478090EA010F48BFF4
:1031E00042F480724FF0004C4CEA00204CEA01217E
:1031F00002EB0302A0FB0113A2F50002002918BF95
:1032000043F001035B0028BF4FEA330342EB224245
:103210005FEA132C4CEBC2502EBFBCEB436FB2F5F0
:103220007C0F70474FEA036CBCF1004F08BF20F0E1
:103230000100B2F57C0F38BF70470BD582F0FF025A
:1032400012F5803FC8BF704700F1C040D8BF00F002
:103250000040704700F5000C5FEA4C0C48BF704717
:10326000B0F1C04000F073B890EA010F0CEAD1133E
:1032700048BF42F48072624538BF634504D280EA99
:10328000010000F00040704710B500F01AF800BFD0
:103290008900013E00F007B800F009B85FEA410C70
:1032A0005FEA1C6C08D080EA010000F050B85FEAC9
:1032B000400C5FEA1C6CF6D14FF00040A0F5800096
:1032C00070470EF1020E2EF0030E5EF8044B2442FE
:1032D00004D44FEA4102B2F17F4F11D84FEA4003C4
:1032E000B3F17F4F0CD80ED14FEAD07CB2F17F4FB3
:1032F0000CEB4C0C0CF1020C08BF4CEBD17C04E045
:103300004FF0080C01E04FEAD17C0CEB4C0324FA9F
:1033100003F404F00704B4F1040C06D20EEB840CA1
:10332000BDE810404CF0010C6047DFE80CF00708E6
:1033300002024FF00040A0F5800010BD0846420098
:1033400018BFD2F1807288BF00F0004010BDFF218D
:1033500041EAD050C00570470000000000000000A6
:10336000002F000000000700070000147F147F14E6
:1033700000242A7F2A12006264081323003649556C
:10338000225000000503000000001C224100000044
:1033900041221C000014083E08140008083E0808DA
:1033A000000000A060000008080808080000606035
:1033B0000000002010080402003E5149453E000074
:1033C000427F4000004261514946002141454B3156
:1033D000001814127F10002745454539003C4A4922
:1033E0004930000171090503003649494936000694
:1033F0004949291E000036360000000056360000FC
:103400000008142241000014141414140000412276
:10341000140800020151090600324959513E007C4E
:103420001211127C007F49494936003E4141412238
:10343000007F4141221C007F49494941007F090921
:103440000901003E4149497A007F0808087F0000D1
:10345000417F4100002040413F01007F081422418C
:10346000007F40404040007F020C027F007F040844
:10347000107F003E4141413E007F09090906003EA0
:103480004151215E007F09192946004649494931C9
:103490000001017F0101003F4040403F001F2040EC
:1034A000201F003F4038403F0063140814630007AA
:1034B0000870080700615149454300007F41410001
:1034C00000552A552A55000041417F0000040201A1
:1034D000020400404040404000000102040000207F
:1034E00054545478007F48444438003844444420BD
:1034F00000384444487F00385454541800087E096A
:1035000001020018A4A4A47C007F08040478000031
:10351000447D4000004080847D00007F10284400EE
:103520000000417F4000007C04180478007C0804FF
:10353000047800384444443800FC2424241800183B
:10354000242418FC007C0804040800485454542027
:1035500000043F444020003C4040207C001C2040B0
:10356000201C003C4030403C004428102844001CF3
:10357000A0A0A07C004464544C44141414141414EB
:10358000000000000000000000000000000000003B
:10359000000000F8000000000000003330000000D0
:1035A00000100C06100C06000000000000000000D7
:1035B00040C07840C0784000043F04043F04040049
:1035C000007088FC08300000001820FF211E000059
:1035D000F008F000E018000000211C031E211E006E
:1035E00000F00888700000001E21232419272110F4
:1035F00010160E0000000000000000000000000097
:10360000000000E01804020000000007182040003D
:1036100000020418E000000000402018070000002D
:10362000404080F0804040000202010F0102020091
:10363000000000F0000000000101011F0101010075
:10364000000000000000000080B0700000000000DA
:103650000000000000000000000101010101010163
:1036600000000000000000000030300000000000FA
:1036700000000000806018040060180601000000CF
:1036800000E010080810E000000F102020100F00CC
:10369000001010F8000000000020203F2020000053
:1036A00000700808088870000030282422213000AB
:1036B00000300888884830000018202020110E00B3
:1036C0000000C02010F8000000070424243F24005C
:1036D00000F80888880808000019212020110E0031
:1036E00000E0108888180000000F112020110E0043
:1036F00000380808C83808000000003F000000003B
:103700000070880808887000001C222121221C00FB
:1037100000E010080810E0000000312222110F0024
:10372000000000C0C00000000000003030000000B9
:103730000000008000000000000080600000000029
:103740000000804020100800000102040810200042
:10375000404040404040400004040404040404008D
:103760000008102040800000002010080402010022
:10377000007048080808F000000000303601000022
:10378000C030C828E810E0000718272423140B00D5
:103790000000C038E0000000203C2302022738204F
:1037A00008F8888888700000203F202020110E0033
:1037B000C03008080808380007182020201008002A
:1037C00008F808080810E000203F202020100F0013
:1037D00008F88888E8081000203F202023201800DF
:1037E00008F88888E8081000203F20000300000047
:1037F000C03008080838000007182020221E0200E8
:1038000008F808000008F808203F210101213F20A6
:10381000000808F8080800000020203F20200000D1
:1038200000000808F8080800C08080807F000000C1
:1038300008F888C028180800203F200126382000FA
:1038400008F8080000000000203F20202020300061
:1038500008F8F800F8F80800203F003F003F20007B
:1038600008F830C00008F808203F200007183F0083
:10387000E01008080810E0000F10202020100F00B2
:1038800008F808080808F000203F210101010000A5
:10389000E01008080810E0000F18242438504F00EA
:1038A00008F8888888887000203F2000030C3020AA
:1038B00000708808080838000038202121221C00E8
:1038C000180808F8080818000000203F2000000031
:1038D00008F808000008F808001F202020201F001A
:1038E0000878880000C83808000007380E0100007A
:1038F000F80800F80008F800033C0700073C030044
:10390000081868808068180820302C03032C3020A9
:103910000838C800C83808000000203F2000000018
:1039200010080808C8380800203826212020180070
:10393000000000FE020202000000007F4040400044
:10394000000C30C000000000000000010638C0007C
:1039500000020202FE000000004040407F00000024
:103960000000040202020400000000000000000049
:103970000000000000000000808080808080808047
:10398000000202040000000000000000000000002F
:1039900000008080808000000019242222223F2025
:1039A00008F8008080000000003F112020110E0068
:1039B0000000008080800000000E112020201100F7
:1039C000000000808088F800000E112020103F20A9
:1039D0000000808080800000001F2222222213002D
:1039E000008080F0888888180020203F2020000078
:1039F0000000808080808000006B9494949360002D
:103A000008F8008080800000203F210000203F2037
:103A100000809898000000000020203F2020000037
:103A2000000000809898000000C08080807F000027
:103A300008F8000080808000203F24022D30200004
:103A4000000808F8000000000020203F20200000AF
:103A50008080808080808000203F20003F20003FC9
:103A60008080008080800000203F210000203F20D7
:103A70000000808080800000001F202020201F0088
:103A8000808000808000000080FFA12020110E00B7
:103A90000000008080808000000E112020A0FF80A8
:103AA000808080008080800020203F212000010055
:103AB00000008080808080000033242424241900AA
:103AC000008080E0808000000000001F20200000B7
:103AD0008080000000808000001F202020103F20F8
:103AE000808080000080808000010E300806010088
:103AF00080800080008080800F300C030C300F002D
:103B000000808000808080000020312E0E31200057
:103B1000808080000080808080818E701806010087
:103B200000808080808080000021302C22213000A5
:103B300000000000807C020200000000003F4040C6
:103B400000000000FF00000000000000FF00000077
:103B50000002027C800000000040403F00000000A6
:103B60000006010102020404000000000000000041
:103B7000903B0008000000206C00000028010008B5
:103B8000FC3B00086C000020C40600004401000853
:103B900000000000000050000000000000000000D5
:103BA0000000000000000000000000000000000015
:103BB0000000000000000000FF07FF07FF07FF07ED
:103BC00000000000000000000000000000000000F5
:103BD0000F000000000001020304010203040607B5
:103BE000080902040608000000A24A0400000000C0
:0C3BF000000000000102030406070809A1
:040000050800019955
:00000001FF
